{
  "_format": "hh-sol-artifact-1",
  "contractName": "PetsNFTVRF",
  "sourceName": "contracts/PetsNFTVRF.sol",
  "abi": [
    {
      "inputs": [
        {
          "internalType": "string",
          "name": "baseURI",
          "type": "string"
        },
        {
          "internalType": "string",
          "name": "name",
          "type": "string"
        },
        {
          "internalType": "string",
          "name": "symbol",
          "type": "string"
        },
        {
          "internalType": "string[]",
          "name": "NFTs",
          "type": "string[]"
        },
        {
          "internalType": "uint64",
          "name": "subscriptionId",
          "type": "uint64"
        }
      ],
      "stateMutability": "nonpayable",
      "type": "constructor"
    },
    {
      "inputs": [
        {
          "internalType": "address",
          "name": "have",
          "type": "address"
        },
        {
          "internalType": "address",
          "name": "want",
          "type": "address"
        }
      ],
      "name": "OnlyCoordinatorCanFulfill",
      "type": "error"
    },
    {
      "anonymous": false,
      "inputs": [
        {
          "indexed": true,
          "internalType": "address",
          "name": "owner",
          "type": "address"
        },
        {
          "indexed": true,
          "internalType": "address",
          "name": "approved",
          "type": "address"
        },
        {
          "indexed": true,
          "internalType": "uint256",
          "name": "tokenId",
          "type": "uint256"
        }
      ],
      "name": "Approval",
      "type": "event"
    },
    {
      "anonymous": false,
      "inputs": [
        {
          "indexed": true,
          "internalType": "address",
          "name": "owner",
          "type": "address"
        },
        {
          "indexed": true,
          "internalType": "address",
          "name": "operator",
          "type": "address"
        },
        {
          "indexed": false,
          "internalType": "bool",
          "name": "approved",
          "type": "bool"
        }
      ],
      "name": "ApprovalForAll",
      "type": "event"
    },
    {
      "anonymous": false,
      "inputs": [
        {
          "indexed": false,
          "internalType": "address",
          "name": "owner",
          "type": "address"
        },
        {
          "indexed": false,
          "internalType": "uint256",
          "name": "requestId",
          "type": "uint256"
        }
      ],
      "name": "NewRandomNumberRequest",
      "type": "event"
    },
    {
      "anonymous": false,
      "inputs": [
        {
          "indexed": false,
          "internalType": "address",
          "name": "owner",
          "type": "address"
        },
        {
          "indexed": false,
          "internalType": "uint256",
          "name": "tokenId",
          "type": "uint256"
        }
      ],
      "name": "NewTokenMinted",
      "type": "event"
    },
    {
      "anonymous": false,
      "inputs": [
        {
          "indexed": true,
          "internalType": "address",
          "name": "from",
          "type": "address"
        },
        {
          "indexed": true,
          "internalType": "address",
          "name": "to",
          "type": "address"
        },
        {
          "indexed": true,
          "internalType": "uint256",
          "name": "tokenId",
          "type": "uint256"
        }
      ],
      "name": "Transfer",
      "type": "event"
    },
    {
      "inputs": [
        {
          "internalType": "address",
          "name": "to",
          "type": "address"
        },
        {
          "internalType": "uint256",
          "name": "tokenId",
          "type": "uint256"
        }
      ],
      "name": "approve",
      "outputs": [],
      "stateMutability": "nonpayable",
      "type": "function"
    },
    {
      "inputs": [
        {
          "internalType": "address",
          "name": "owner",
          "type": "address"
        }
      ],
      "name": "balanceOf",
      "outputs": [
        {
          "internalType": "uint256",
          "name": "",
          "type": "uint256"
        }
      ],
      "stateMutability": "view",
      "type": "function"
    },
    {
      "inputs": [
        {
          "internalType": "uint256",
          "name": "tokenId",
          "type": "uint256"
        }
      ],
      "name": "getApproved",
      "outputs": [
        {
          "internalType": "address",
          "name": "",
          "type": "address"
        }
      ],
      "stateMutability": "view",
      "type": "function"
    },
    {
      "inputs": [],
      "name": "getAvailableNFTs",
      "outputs": [
        {
          "internalType": "string[]",
          "name": "",
          "type": "string[]"
        }
      ],
      "stateMutability": "view",
      "type": "function"
    },
    {
      "inputs": [],
      "name": "getMaxSupply",
      "outputs": [
        {
          "internalType": "uint256",
          "name": "",
          "type": "uint256"
        }
      ],
      "stateMutability": "view",
      "type": "function"
    },
    {
      "inputs": [],
      "name": "getNumberOfAvailableNFTs",
      "outputs": [
        {
          "internalType": "uint256",
          "name": "",
          "type": "uint256"
        }
      ],
      "stateMutability": "view",
      "type": "function"
    },
    {
      "inputs": [
        {
          "internalType": "address",
          "name": "owner",
          "type": "address"
        }
      ],
      "name": "getOwnersTokens",
      "outputs": [
        {
          "internalType": "uint256[]",
          "name": "",
          "type": "uint256[]"
        }
      ],
      "stateMutability": "view",
      "type": "function"
    },
    {
      "inputs": [
        {
          "internalType": "address",
          "name": "owner",
          "type": "address"
        },
        {
          "internalType": "address",
          "name": "operator",
          "type": "address"
        }
      ],
      "name": "isApprovedForAll",
      "outputs": [
        {
          "internalType": "bool",
          "name": "",
          "type": "bool"
        }
      ],
      "stateMutability": "view",
      "type": "function"
    },
    {
      "inputs": [],
      "name": "mintNFT",
      "outputs": [],
      "stateMutability": "nonpayable",
      "type": "function"
    },
    {
      "inputs": [],
      "name": "name",
      "outputs": [
        {
          "internalType": "string",
          "name": "",
          "type": "string"
        }
      ],
      "stateMutability": "view",
      "type": "function"
    },
    {
      "inputs": [
        {
          "internalType": "uint256",
          "name": "tokenId",
          "type": "uint256"
        }
      ],
      "name": "ownerOf",
      "outputs": [
        {
          "internalType": "address",
          "name": "",
          "type": "address"
        }
      ],
      "stateMutability": "view",
      "type": "function"
    },
    {
      "inputs": [
        {
          "internalType": "uint256",
          "name": "requestId",
          "type": "uint256"
        },
        {
          "internalType": "uint256[]",
          "name": "randomWords",
          "type": "uint256[]"
        }
      ],
      "name": "rawFulfillRandomWords",
      "outputs": [],
      "stateMutability": "nonpayable",
      "type": "function"
    },
    {
      "inputs": [
        {
          "internalType": "uint256",
          "name": "",
          "type": "uint256"
        }
      ],
      "name": "s_randomWords",
      "outputs": [
        {
          "internalType": "uint256",
          "name": "",
          "type": "uint256"
        }
      ],
      "stateMutability": "view",
      "type": "function"
    },
    {
      "inputs": [],
      "name": "s_requestId",
      "outputs": [
        {
          "internalType": "uint256",
          "name": "",
          "type": "uint256"
        }
      ],
      "stateMutability": "view",
      "type": "function"
    },
    {
      "inputs": [
        {
          "internalType": "address",
          "name": "from",
          "type": "address"
        },
        {
          "internalType": "address",
          "name": "to",
          "type": "address"
        },
        {
          "internalType": "uint256",
          "name": "tokenId",
          "type": "uint256"
        }
      ],
      "name": "safeTransferFrom",
      "outputs": [],
      "stateMutability": "nonpayable",
      "type": "function"
    },
    {
      "inputs": [
        {
          "internalType": "address",
          "name": "from",
          "type": "address"
        },
        {
          "internalType": "address",
          "name": "to",
          "type": "address"
        },
        {
          "internalType": "uint256",
          "name": "tokenId",
          "type": "uint256"
        },
        {
          "internalType": "bytes",
          "name": "_data",
          "type": "bytes"
        }
      ],
      "name": "safeTransferFrom",
      "outputs": [],
      "stateMutability": "nonpayable",
      "type": "function"
    },
    {
      "inputs": [
        {
          "internalType": "address",
          "name": "operator",
          "type": "address"
        },
        {
          "internalType": "bool",
          "name": "approved",
          "type": "bool"
        }
      ],
      "name": "setApprovalForAll",
      "outputs": [],
      "stateMutability": "nonpayable",
      "type": "function"
    },
    {
      "inputs": [
        {
          "internalType": "bytes4",
          "name": "interfaceId",
          "type": "bytes4"
        }
      ],
      "name": "supportsInterface",
      "outputs": [
        {
          "internalType": "bool",
          "name": "",
          "type": "bool"
        }
      ],
      "stateMutability": "view",
      "type": "function"
    },
    {
      "inputs": [],
      "name": "symbol",
      "outputs": [
        {
          "internalType": "string",
          "name": "",
          "type": "string"
        }
      ],
      "stateMutability": "view",
      "type": "function"
    },
    {
      "inputs": [
        {
          "internalType": "uint256",
          "name": "tokenId",
          "type": "uint256"
        }
      ],
      "name": "tokenURI",
      "outputs": [
        {
          "internalType": "string",
          "name": "",
          "type": "string"
        }
      ],
      "stateMutability": "view",
      "type": "function"
    },
    {
      "inputs": [
        {
          "internalType": "address",
          "name": "from",
          "type": "address"
        },
        {
          "internalType": "address",
          "name": "to",
          "type": "address"
        },
        {
          "internalType": "uint256",
          "name": "tokenId",
          "type": "uint256"
        }
      ],
      "name": "transferFrom",
      "outputs": [],
      "stateMutability": "nonpayable",
      "type": "function"
    }
  ],
  "bytecode": "0x60a0604052736168499c0cffcacd319c818142124b7a15e857ab601060006101000a81548173ffffffffffffffffffffffffffffffffffffffff021916908373ffffffffffffffffffffffffffffffffffffffff1602179055507fd89b2bf150e3b9e13446986e571fb9cab24b13cea0a43ea20a6049a85cc807cc60001b601155620493e0601260006101000a81548163ffffffff021916908363ffffffff1602179055506003601260046101000a81548161ffff021916908361ffff1602179055506001601260066101000a81548163ffffffff021916908363ffffffff160217905550348015620000f157600080fd5b506040516200456138038062004561833981810160405281019062000117919062000544565b601060009054906101000a900473ffffffffffffffffffffffffffffffffffffffff16848481600090805190602001906200015492919062000279565b5080600190805190602001906200016d92919062000279565b5050508073ffffffffffffffffffffffffffffffffffffffff1660808173ffffffffffffffffffffffffffffffffffffffff1660601b81525050508460089080519060200190620001c092919062000279565b5081600a9080519060200190620001d99291906200030a565b50815160098190555080600f60146101000a81548167ffffffffffffffff021916908367ffffffffffffffff160217905550601060009054906101000a900473ffffffffffffffffffffffffffffffffffffffff16600f60006101000a81548173ffffffffffffffffffffffffffffffffffffffff021916908373ffffffffffffffffffffffffffffffffffffffff1602179055505050505050620007f7565b828054620002879062000702565b90600052602060002090601f016020900481019282620002ab5760008555620002f7565b82601f10620002c657805160ff1916838001178555620002f7565b82800160010185558215620002f7579182015b82811115620002f6578251825591602001919060010190620002d9565b5b50905062000306919062000371565b5090565b8280548282559060005260206000209081019282156200035e579160200282015b828111156200035d5782518290805190602001906200034c92919062000279565b50916020019190600101906200032b565b5b5090506200036d919062000390565b5090565b5b808211156200038c57600081600090555060010162000372565b5090565b5b80821115620003b45760008181620003aa9190620003b8565b5060010162000391565b5090565b508054620003c69062000702565b6000825580601f10620003da5750620003fb565b601f016020900490600052602060002090810190620003fa919062000371565b5b50565b6000620004156200040f8462000653565b6200062a565b905080838252602082019050828560208602820111156200043557600080fd5b60005b858110156200048457815167ffffffffffffffff8111156200045957600080fd5b80860162000468898262000500565b8552602085019450602084019350505060018101905062000438565b5050509392505050565b6000620004a56200049f8462000682565b6200062a565b905082815260208101848484011115620004be57600080fd5b620004cb848285620006cc565b509392505050565b600082601f830112620004e557600080fd5b8151620004f7848260208601620003fe565b91505092915050565b600082601f8301126200051257600080fd5b8151620005248482602086016200048e565b91505092915050565b6000815190506200053e81620007dd565b92915050565b600080600080600060a086880312156200055d57600080fd5b600086015167ffffffffffffffff8111156200057857600080fd5b620005868882890162000500565b955050602086015167ffffffffffffffff811115620005a457600080fd5b620005b28882890162000500565b945050604086015167ffffffffffffffff811115620005d057600080fd5b620005de8882890162000500565b935050606086015167ffffffffffffffff811115620005fc57600080fd5b6200060a88828901620004d3565b92505060806200061d888289016200052d565b9150509295509295909350565b60006200063662000649565b905062000644828262000738565b919050565b6000604051905090565b600067ffffffffffffffff8211156200067157620006706200079d565b5b602082029050602081019050919050565b600067ffffffffffffffff821115620006a0576200069f6200079d565b5b620006ab82620007cc565b9050602081019050919050565b600067ffffffffffffffff82169050919050565b60005b83811015620006ec578082015181840152602081019050620006cf565b83811115620006fc576000848401525b50505050565b600060028204905060018216806200071b57607f821691505b602082108114156200073257620007316200076e565b5b50919050565b6200074382620007cc565b810181811067ffffffffffffffff821117156200076557620007646200079d565b5b80604052505050565b7f4e487b7100000000000000000000000000000000000000000000000000000000600052602260045260246000fd5b7f4e487b7100000000000000000000000000000000000000000000000000000000600052604160045260246000fd5b6000601f19601f8301169050919050565b620007e881620006b8565b8114620007f457600080fd5b50565b60805160601c613d446200081d6000396000818161092001526109740152613d446000f3fe608060405234801561001057600080fd5b50600436106101375760003560e01c80636352211e116100b8578063b88d4fde1161007c578063b88d4fde14610328578063c87b56dd14610344578063daa9855c14610374578063e89e106a146103a4578063e985e9c5146103c2578063f6eaffc8146103f257610137565b80636352211e1461027057806370a08231146102a05780638b8ae32b146102d057806395d89b41146102ee578063a22cb4651461030c57610137565b80631fe543e3116100ff5780631fe543e3146101e057806323b872dd146101fc57806332702c951461021857806342842e0e146102365780634c0f38c21461025257610137565b806301ffc9a71461013c57806306fdde031461016c578063081812fc1461018a578063095ea7b3146101ba57806314f710fe146101d6575b600080fd5b610156600480360381019061015191906128c9565b610422565b6040516101639190613063565b60405180910390f35b610174610504565b60405161018191906130d1565b60405180910390f35b6101a4600480360381019061019f919061291b565b610596565b6040516101b19190612f66565b60405180910390f35b6101d460048036038101906101cf919061288d565b61061b565b005b6101de610733565b005b6101fa60048036038101906101f5919061296d565b61091e565b005b61021660048036038101906102119190612787565b6109de565b005b610220610a3e565b60405161022d919061301f565b60405180910390f35b610250600480360381019061024b9190612787565b610b17565b005b61025a610b37565b6040516102679190613313565b60405180910390f35b61028a6004803603810190610285919061291b565b610b41565b6040516102979190612f66565b60405180910390f35b6102ba60048036038101906102b59190612722565b610bf3565b6040516102c79190613313565b60405180910390f35b6102d8610cab565b6040516102e59190613313565b60405180910390f35b6102f6610cb8565b60405161030391906130d1565b60405180910390f35b61032660048036038101906103219190612851565b610d4a565b005b610342600480360381019061033d91906127d6565b610d60565b005b61035e6004803603810190610359919061291b565b610dc2565b60405161036b91906130d1565b60405180910390f35b61038e60048036038101906103899190612722565b610f14565b60405161039b9190613041565b60405180910390f35b6103ac610fab565b6040516103b99190613313565b60405180910390f35b6103dc60048036038101906103d7919061274b565b610fb1565b6040516103e99190613063565b60405180910390f35b61040c6004803603810190610407919061291b565b611045565b6040516104199190613313565b60405180910390f35b60007f80ac58cd000000000000000000000000000000000000000000000000000000007bffffffffffffffffffffffffffffffffffffffffffffffffffffffff1916827bffffffffffffffffffffffffffffffffffffffffffffffffffffffff191614806104ed57507f5b5e139f000000000000000000000000000000000000000000000000000000007bffffffffffffffffffffffffffffffffffffffffffffffffffffffff1916827bffffffffffffffffffffffffffffffffffffffffffffffffffffffff1916145b806104fd57506104fc82611069565b5b9050919050565b60606000805461051390613638565b80601f016020809104026020016040519081016040528092919081815260200182805461053f90613638565b801561058c5780601f106105615761010080835404028352916020019161058c565b820191906000526020600020905b81548152906001019060200180831161056f57829003601f168201915b5050505050905090565b60006105a1826110d3565b6105e0576040517f08c379a00000000000000000000000000000000000000000000000000000000081526004016105d790613273565b60405180910390fd5b6004600083815260200190815260200160002060009054906101000a900473ffffffffffffffffffffffffffffffffffffffff169050919050565b600061062682610b41565b90508073ffffffffffffffffffffffffffffffffffffffff168373ffffffffffffffffffffffffffffffffffffffff161415610697576040517f08c379a000000000000000000000000000000000000000000000000000000000815260040161068e906132b3565b60405180910390fd5b8073ffffffffffffffffffffffffffffffffffffffff166106b661113f565b73ffffffffffffffffffffffffffffffffffffffff1614806106e557506106e4816106df61113f565b610fb1565b5b610724576040517f08c379a000000000000000000000000000000000000000000000000000000000815260040161071b906131b3565b60405180910390fd5b61072e8383611147565b505050565b600061073f6007611200565b90506009548110610785576040517f08c379a000000000000000000000000000000000000000000000000000000000815260040161077c906132f3565b60405180910390fd5b600f60009054906101000a900473ffffffffffffffffffffffffffffffffffffffff1673ffffffffffffffffffffffffffffffffffffffff16635d3b1d30601154600f60149054906101000a900467ffffffffffffffff16601260049054906101000a900461ffff16601260009054906101000a900463ffffffff16601260069054906101000a900463ffffffff166040518663ffffffff1660e01b815260040161083495949392919061307e565b602060405180830381600087803b15801561084e57600080fd5b505af1158015610862573d6000803e3d6000fd5b505050506040513d601f19601f820116820180604052508101906108869190612944565b60148190555033600d6000601454815260200190815260200160002060006101000a81548173ffffffffffffffffffffffffffffffffffffffff021916908373ffffffffffffffffffffffffffffffffffffffff1602179055507f84980c1e76e2e53228cb08273e20ec8e3089b115175de2f3dafbc1a3e0d507ae33601454604051610913929190612ff6565b60405180910390a150565b7f000000000000000000000000000000000000000000000000000000000000000073ffffffffffffffffffffffffffffffffffffffff163373ffffffffffffffffffffffffffffffffffffffff16146109d057337f00000000000000000000000000000000000000000000000000000000000000006040517f1cf993f40000000000000000000000000000000000000000000000000000000081526004016109c7929190612f81565b60405180910390fd5b6109da828261120e565b5050565b6109ef6109e961113f565b826114d8565b610a2e576040517f08c379a0000000000000000000000000000000000000000000000000000000008152600401610a25906132d3565b60405180910390fd5b610a398383836115b6565b505050565b6060600a805480602002602001604051908101604052809291908181526020016000905b82821015610b0e578382906000526020600020018054610a8190613638565b80601f0160208091040260200160405190810160405280929190818152602001828054610aad90613638565b8015610afa5780601f10610acf57610100808354040283529160200191610afa565b820191906000526020600020905b815481529060010190602001808311610add57829003601f168201915b505050505081526020019060010190610a62565b50505050905090565b610b3283838360405180602001604052806000815250610d60565b505050565b6000600954905090565b6000806002600084815260200190815260200160002060009054906101000a900473ffffffffffffffffffffffffffffffffffffffff169050600073ffffffffffffffffffffffffffffffffffffffff168173ffffffffffffffffffffffffffffffffffffffff161415610bea576040517f08c379a0000000000000000000000000000000000000000000000000000000008152600401610be1906131f3565b60405180910390fd5b80915050919050565b60008073ffffffffffffffffffffffffffffffffffffffff168273ffffffffffffffffffffffffffffffffffffffff161415610c64576040517f08c379a0000000000000000000000000000000000000000000000000000000008152600401610c5b906131d3565b60405180910390fd5b600360008373ffffffffffffffffffffffffffffffffffffffff1673ffffffffffffffffffffffffffffffffffffffff168152602001908152602001600020549050919050565b6000600a80549050905090565b606060018054610cc790613638565b80601f0160208091040260200160405190810160405280929190818152602001828054610cf390613638565b8015610d405780601f10610d1557610100808354040283529160200191610d40565b820191906000526020600020905b815481529060010190602001808311610d2357829003601f168201915b5050505050905090565b610d5c610d5561113f565b83836116f3565b5050565b610d71610d6b61113f565b836114d8565b610db0576040517f08c379a0000000000000000000000000000000000000000000000000000000008152600401610da7906132d3565b60405180910390fd5b610dbc84848484611860565b50505050565b6060610dcd826110d3565b610e0c576040517f08c379a0000000000000000000000000000000000000000000000000000000008152600401610e0390613253565b60405180910390fd5b6000600660008481526020019081526020016000208054610e2c90613638565b80601f0160208091040260200160405190810160405280929190818152602001828054610e5890613638565b8015610ea55780601f10610e7a57610100808354040283529160200191610ea5565b820191906000526020600020905b815481529060010190602001808311610e8857829003601f168201915b505050505090506000610eb66118bc565b9050600081511415610ecc578192505050610f0f565b600082511115610f01578082604051602001610ee9929190612f09565b60405160208183030381529060405292505050610f0f565b610f0a846118e4565b925050505b919050565b6060600b60008373ffffffffffffffffffffffffffffffffffffffff1673ffffffffffffffffffffffffffffffffffffffff168152602001908152602001600020805480602002602001604051908101604052809291908181526020018280548015610f9f57602002820191906000526020600020905b815481526020019060010190808311610f8b575b50505050509050919050565b60145481565b6000600560008473ffffffffffffffffffffffffffffffffffffffff1673ffffffffffffffffffffffffffffffffffffffff16815260200190815260200160002060008373ffffffffffffffffffffffffffffffffffffffff1673ffffffffffffffffffffffffffffffffffffffff16815260200190815260200160002060009054906101000a900460ff16905092915050565b6013818154811061105557600080fd5b906000526020600020016000915090505481565b60007f01ffc9a7000000000000000000000000000000000000000000000000000000007bffffffffffffffffffffffffffffffffffffffffffffffffffffffff1916827bffffffffffffffffffffffffffffffffffffffffffffffffffffffff1916149050919050565b60008073ffffffffffffffffffffffffffffffffffffffff166002600084815260200190815260200160002060009054906101000a900473ffffffffffffffffffffffffffffffffffffffff1673ffffffffffffffffffffffffffffffffffffffff1614159050919050565b600033905090565b816004600083815260200190815260200160002060006101000a81548173ffffffffffffffffffffffffffffffffffffffff021916908373ffffffffffffffffffffffffffffffffffffffff160217905550808273ffffffffffffffffffffffffffffffffffffffff166111ba83610b41565b73ffffffffffffffffffffffffffffffffffffffff167f8c5be1e5ebec7d5bd14f71427d1e84f3dd0314c0f7b2291e5b200ac8c7c3b92560405160405180910390a45050565b600081600001549050919050565b6000600a8054905082600081518110611250577f4e487b7100000000000000000000000000000000000000000000000000000000600052603260045260246000fd5b602002602001015161126291906136e4565b905060006112706007611200565b90506000600a83815481106112ae577f4e487b7100000000000000000000000000000000000000000000000000000000600052603260045260246000fd5b906000526020600020016040516020016112c89190612f2d565b6040516020818303038152906040529050611316600d600087815260200190815260200160002060009054906101000a900473ffffffffffffffffffffffffffffffffffffffff168361198b565b61132082826119a9565b61132983611a1d565b6113336007611b27565b600b6000600d600088815260200190815260200160002060009054906101000a900473ffffffffffffffffffffffffffffffffffffffff1673ffffffffffffffffffffffffffffffffffffffff1673ffffffffffffffffffffffffffffffffffffffff1681526020019081526020016000208290806001815401808255809150506001900390600052602060002001600090919091909150556001600b6000600d600089815260200190815260200160002060009054906101000a900473ffffffffffffffffffffffffffffffffffffffff1673ffffffffffffffffffffffffffffffffffffffff1673ffffffffffffffffffffffffffffffffffffffff1681526020019081526020016000208054905061144e9190613512565b600c6000848152602001908152602001600020819055507f5dd00ffcb6618cfa61061cff0e31d2e5871199cfca7a136a4ada2dafa91ab941600d600087815260200190815260200160002060009054906101000a900473ffffffffffffffffffffffffffffffffffffffff16836040516114c9929190612ff6565b60405180910390a15050505050565b60006114e3826110d3565b611522576040517f08c379a000000000000000000000000000000000000000000000000000000000815260040161151990613193565b60405180910390fd5b600061152d83610b41565b90508073ffffffffffffffffffffffffffffffffffffffff168473ffffffffffffffffffffffffffffffffffffffff16148061159c57508373ffffffffffffffffffffffffffffffffffffffff1661158484610596565b73ffffffffffffffffffffffffffffffffffffffff16145b806115ad57506115ac8185610fb1565b5b91505092915050565b6115c1838383611b3d565b6000600c600083815260200190815260200160002054905061162181600b60008773ffffffffffffffffffffffffffffffffffffffff1673ffffffffffffffffffffffffffffffffffffffff168152602001908152602001600020611da4565b600b60008473ffffffffffffffffffffffffffffffffffffffff1673ffffffffffffffffffffffffffffffffffffffff1681526020019081526020016000208290806001815401808255809150506001900390600052602060002001600090919091909150556001600b60008573ffffffffffffffffffffffffffffffffffffffff1673ffffffffffffffffffffffffffffffffffffffff168152602001908152602001600020805490506116d69190613512565b600c60008481526020019081526020016000208190555050505050565b8173ffffffffffffffffffffffffffffffffffffffff168373ffffffffffffffffffffffffffffffffffffffff161415611762576040517f08c379a000000000000000000000000000000000000000000000000000000000815260040161175990613173565b60405180910390fd5b80600560008573ffffffffffffffffffffffffffffffffffffffff1673ffffffffffffffffffffffffffffffffffffffff16815260200190815260200160002060008473ffffffffffffffffffffffffffffffffffffffff1673ffffffffffffffffffffffffffffffffffffffff16815260200190815260200160002060006101000a81548160ff0219169083151502179055508173ffffffffffffffffffffffffffffffffffffffff168373ffffffffffffffffffffffffffffffffffffffff167f17307eab39ab6107e8899845ad3d59bd9653f200f220920489ca2b5937696c31836040516118539190613063565b60405180910390a3505050565b61186b8484846115b6565b61187784848484611e90565b6118b6576040517f08c379a00000000000000000000000000000000000000000000000000000000081526004016118ad906130f3565b60405180910390fd5b50505050565b606060086040516020016118d09190612f44565b604051602081830303815290604052905090565b60606118ef826110d3565b61192e576040517f08c379a000000000000000000000000000000000000000000000000000000000815260040161192590613293565b60405180910390fd5b60006119386118bc565b905060008151116119585760405180602001604052806000815250611983565b8061196284612027565b604051602001611973929190612f09565b6040516020818303038152906040525b915050919050565b6119a58282604051806020016040528060008152506121d4565b5050565b6119b2826110d3565b6119f1576040517f08c379a00000000000000000000000000000000000000000000000000000000081526004016119e890613213565b60405180910390fd5b80600660008481526020019081526020016000209080519060200190611a18929190612436565b505050565b600a6001600a80549050611a319190613512565b81548110611a68577f4e487b7100000000000000000000000000000000000000000000000000000000600052603260045260246000fd5b90600052602060002001600a8281548110611aac577f4e487b7100000000000000000000000000000000000000000000000000000000600052603260045260246000fd5b90600052602060002001908054611ac290613638565b611acd9291906124bc565b50600a805480611b06577f4e487b7100000000000000000000000000000000000000000000000000000000600052603160045260246000fd5b600190038181906000526020600020016000611b229190612549565b905550565b6001816000016000828254019250508190555050565b8273ffffffffffffffffffffffffffffffffffffffff16611b5d82610b41565b73ffffffffffffffffffffffffffffffffffffffff1614611bb3576040517f08c379a0000000000000000000000000000000000000000000000000000000008152600401611baa90613113565b60405180910390fd5b600073ffffffffffffffffffffffffffffffffffffffff168273ffffffffffffffffffffffffffffffffffffffff161415611c23576040517f08c379a0000000000000000000000000000000000000000000000000000000008152600401611c1a90613153565b60405180910390fd5b611c2e83838361222f565b611c39600082611147565b6001600360008573ffffffffffffffffffffffffffffffffffffffff1673ffffffffffffffffffffffffffffffffffffffff1681526020019081526020016000206000828254611c899190613512565b925050819055506001600360008473ffffffffffffffffffffffffffffffffffffffff1673ffffffffffffffffffffffffffffffffffffffff1681526020019081526020016000206000828254611ce0919061348b565b92505081905550816002600083815260200190815260200160002060006101000a81548173ffffffffffffffffffffffffffffffffffffffff021916908373ffffffffffffffffffffffffffffffffffffffff160217905550808273ffffffffffffffffffffffffffffffffffffffff168473ffffffffffffffffffffffffffffffffffffffff167fddf252ad1be2c89b69c2b068fc378daa952ba7f163c4a11628f55a4df523b3ef60405160405180910390a4611d9f838383612234565b505050565b8060018280549050611db69190613512565b81548110611ded577f4e487b7100000000000000000000000000000000000000000000000000000000600052603260045260246000fd5b9060005260206000200154818381548110611e31577f4e487b7100000000000000000000000000000000000000000000000000000000600052603260045260246000fd5b906000526020600020018190555080805480611e76577f4e487b7100000000000000000000000000000000000000000000000000000000600052603160045260246000fd5b600190038181906000526020600020016000905590555050565b6000611eb18473ffffffffffffffffffffffffffffffffffffffff16612239565b1561201a578373ffffffffffffffffffffffffffffffffffffffff1663150b7a02611eda61113f565b8786866040518563ffffffff1660e01b8152600401611efc9493929190612faa565b602060405180830381600087803b158015611f1657600080fd5b505af1925050508015611f4757506040513d601f19601f82011682018060405250810190611f4491906128f2565b60015b611fca573d8060008114611f77576040519150601f19603f3d011682016040523d82523d6000602084013e611f7c565b606091505b50600081511415611fc2576040517f08c379a0000000000000000000000000000000000000000000000000000000008152600401611fb9906130f3565b60405180910390fd5b805181602001fd5b63150b7a0260e01b7bffffffffffffffffffffffffffffffffffffffffffffffffffffffff1916817bffffffffffffffffffffffffffffffffffffffffffffffffffffffff19161491505061201f565b600190505b949350505050565b6060600082141561206f576040518060400160405280600181526020017f300000000000000000000000000000000000000000000000000000000000000081525090506121cf565b600082905060005b600082146120a157808061208a9061369b565b915050600a8261209a91906134e1565b9150612077565b60008167ffffffffffffffff8111156120e3577f4e487b7100000000000000000000000000000000000000000000000000000000600052604160045260246000fd5b6040519080825280601f01601f1916602001820160405280156121155781602001600182028036833780820191505090505b5090505b600085146121c85760018261212e9190613512565b9150600a8561213d91906136e4565b6030612149919061348b565b60f81b818381518110612185577f4e487b7100000000000000000000000000000000000000000000000000000000600052603260045260246000fd5b60200101907effffffffffffffffffffffffffffffffffffffffffffffffffffffffffffff1916908160001a905350600a856121c191906134e1565b9450612119565b8093505050505b919050565b6121de838361225c565b6121eb6000848484611e90565b61222a576040517f08c379a0000000000000000000000000000000000000000000000000000000008152600401612221906130f3565b60405180910390fd5b505050565b505050565b505050565b6000808273ffffffffffffffffffffffffffffffffffffffff163b119050919050565b600073ffffffffffffffffffffffffffffffffffffffff168273ffffffffffffffffffffffffffffffffffffffff1614156122cc576040517f08c379a00000000000000000000000000000000000000000000000000000000081526004016122c390613233565b60405180910390fd5b6122d5816110d3565b15612315576040517f08c379a000000000000000000000000000000000000000000000000000000000815260040161230c90613133565b60405180910390fd5b6123216000838361222f565b6001600360008473ffffffffffffffffffffffffffffffffffffffff1673ffffffffffffffffffffffffffffffffffffffff1681526020019081526020016000206000828254612371919061348b565b92505081905550816002600083815260200190815260200160002060006101000a81548173ffffffffffffffffffffffffffffffffffffffff021916908373ffffffffffffffffffffffffffffffffffffffff160217905550808273ffffffffffffffffffffffffffffffffffffffff16600073ffffffffffffffffffffffffffffffffffffffff167fddf252ad1be2c89b69c2b068fc378daa952ba7f163c4a11628f55a4df523b3ef60405160405180910390a461243260008383612234565b5050565b82805461244290613638565b90600052602060002090601f01602090048101928261246457600085556124ab565b82601f1061247d57805160ff19168380011785556124ab565b828001600101855582156124ab579182015b828111156124aa57825182559160200191906001019061248f565b5b5090506124b89190612589565b5090565b8280546124c890613638565b90600052602060002090601f0160209004810192826124ea5760008555612538565b82601f106124fb5780548555612538565b8280016001018555821561253857600052602060002091601f016020900482015b8281111561253757825482559160010191906001019061251c565b5b5090506125459190612589565b5090565b50805461255590613638565b6000825580601f106125675750612586565b601f0160209004906000526020600020908101906125859190612589565b5b50565b5b808211156125a257600081600090555060010161258a565b5090565b60006125b96125b484613353565b61332e565b905080838252602082019050828560208602820111156125d857600080fd5b60005b8581101561260857816125ee88826126f8565b8452602084019350602083019250506001810190506125db565b5050509392505050565b60006126256126208461337f565b61332e565b90508281526020810184848401111561263d57600080fd5b6126488482856135f6565b509392505050565b60008135905061265f81613cb2565b92915050565b600082601f83011261267657600080fd5b81356126868482602086016125a6565b91505092915050565b60008135905061269e81613cc9565b92915050565b6000813590506126b381613ce0565b92915050565b6000815190506126c881613ce0565b92915050565b600082601f8301126126df57600080fd5b81356126ef848260208601612612565b91505092915050565b60008135905061270781613cf7565b92915050565b60008151905061271c81613cf7565b92915050565b60006020828403121561273457600080fd5b600061274284828501612650565b91505092915050565b6000806040838503121561275e57600080fd5b600061276c85828601612650565b925050602061277d85828601612650565b9150509250929050565b60008060006060848603121561279c57600080fd5b60006127aa86828701612650565b93505060206127bb86828701612650565b92505060406127cc868287016126f8565b9150509250925092565b600080600080608085870312156127ec57600080fd5b60006127fa87828801612650565b945050602061280b87828801612650565b935050604061281c878288016126f8565b925050606085013567ffffffffffffffff81111561283957600080fd5b612845878288016126ce565b91505092959194509250565b6000806040838503121561286457600080fd5b600061287285828601612650565b92505060206128838582860161268f565b9150509250929050565b600080604083850312156128a057600080fd5b60006128ae85828601612650565b92505060206128bf858286016126f8565b9150509250929050565b6000602082840312156128db57600080fd5b60006128e9848285016126a4565b91505092915050565b60006020828403121561290457600080fd5b6000612912848285016126b9565b91505092915050565b60006020828403121561292d57600080fd5b600061293b848285016126f8565b91505092915050565b60006020828403121561295657600080fd5b60006129648482850161270d565b91505092915050565b6000806040838503121561298057600080fd5b600061298e858286016126f8565b925050602083013567ffffffffffffffff8111156129ab57600080fd5b6129b785828601612665565b9150509250929050565b60006129cd8383612b26565b905092915050565b60006129e18383612ecd565b60208301905092915050565b6129f681613546565b82525050565b6000612a07826133e5565b612a11818561342b565b935083602082028501612a23856133b0565b8060005b85811015612a5f5784840389528151612a4085826129c1565b9450612a4b83613411565b925060208a01995050600181019050612a27565b50829750879550505050505092915050565b6000612a7c826133f0565b612a86818561343c565b9350612a91836133c0565b8060005b83811015612ac2578151612aa988826129d5565b9750612ab48361341e565b925050600181019050612a95565b5085935050505092915050565b612ad881613558565b82525050565b612ae781613564565b82525050565b6000612af8826133fb565b612b02818561344d565b9350612b12818560208601613605565b612b1b816137d1565b840191505092915050565b6000612b3182613406565b612b3b818561345e565b9350612b4b818560208601613605565b612b54816137d1565b840191505092915050565b6000612b6a82613406565b612b74818561346f565b9350612b84818560208601613605565b612b8d816137d1565b840191505092915050565b6000612ba382613406565b612bad8185613480565b9350612bbd818560208601613605565b80840191505092915050565b60008154612bd681613638565b612be08186613480565b94506001821660008114612bfb5760018114612c0c57612c3f565b60ff19831686528186019350612c3f565b612c15856133d0565b60005b83811015612c3757815481890152600182019150602081019050612c18565b838801955050505b50505092915050565b6000612c5560328361346f565b9150612c60826137e2565b604082019050919050565b6000612c7860258361346f565b9150612c8382613831565b604082019050919050565b6000612c9b601c8361346f565b9150612ca682613880565b602082019050919050565b6000612cbe60248361346f565b9150612cc9826138a9565b604082019050919050565b6000612ce160198361346f565b9150612cec826138f8565b602082019050919050565b6000612d04602c8361346f565b9150612d0f82613921565b604082019050919050565b6000612d2760388361346f565b9150612d3282613970565b604082019050919050565b6000612d4a602a8361346f565b9150612d55826139bf565b604082019050919050565b6000612d6d60298361346f565b9150612d7882613a0e565b604082019050919050565b6000612d90602e8361346f565b9150612d9b82613a5d565b604082019050919050565b6000612db360208361346f565b9150612dbe82613aac565b602082019050919050565b6000612dd660318361346f565b9150612de182613ad5565b604082019050919050565b6000612df9602c8361346f565b9150612e0482613b24565b604082019050919050565b6000612e1c602f8361346f565b9150612e2782613b73565b604082019050919050565b6000612e3f60218361346f565b9150612e4a82613bc2565b604082019050919050565b6000612e6260318361346f565b9150612e6d82613c11565b604082019050919050565b6000612e8560178361346f565b9150612e9082613c60565b602082019050919050565b6000612ea8600183613480565b9150612eb382613c89565b600182019050919050565b612ec78161359a565b82525050565b612ed6816135c8565b82525050565b612ee5816135c8565b82525050565b612ef4816135d2565b82525050565b612f03816135e2565b82525050565b6000612f158285612b98565b9150612f218284612b98565b91508190509392505050565b6000612f398284612bc9565b915081905092915050565b6000612f508284612bc9565b9150612f5b82612e9b565b915081905092915050565b6000602082019050612f7b60008301846129ed565b92915050565b6000604082019050612f9660008301856129ed565b612fa360208301846129ed565b9392505050565b6000608082019050612fbf60008301876129ed565b612fcc60208301866129ed565b612fd96040830185612edc565b8181036060830152612feb8184612aed565b905095945050505050565b600060408201905061300b60008301856129ed565b6130186020830184612edc565b9392505050565b6000602082019050818103600083015261303981846129fc565b905092915050565b6000602082019050818103600083015261305b8184612a71565b905092915050565b60006020820190506130786000830184612acf565b92915050565b600060a0820190506130936000830188612ade565b6130a06020830187612efa565b6130ad6040830186612ebe565b6130ba6060830185612eeb565b6130c76080830184612eeb565b9695505050505050565b600060208201905081810360008301526130eb8184612b5f565b905092915050565b6000602082019050818103600083015261310c81612c48565b9050919050565b6000602082019050818103600083015261312c81612c6b565b9050919050565b6000602082019050818103600083015261314c81612c8e565b9050919050565b6000602082019050818103600083015261316c81612cb1565b9050919050565b6000602082019050818103600083015261318c81612cd4565b9050919050565b600060208201905081810360008301526131ac81612cf7565b9050919050565b600060208201905081810360008301526131cc81612d1a565b9050919050565b600060208201905081810360008301526131ec81612d3d565b9050919050565b6000602082019050818103600083015261320c81612d60565b9050919050565b6000602082019050818103600083015261322c81612d83565b9050919050565b6000602082019050818103600083015261324c81612da6565b9050919050565b6000602082019050818103600083015261326c81612dc9565b9050919050565b6000602082019050818103600083015261328c81612dec565b9050919050565b600060208201905081810360008301526132ac81612e0f565b9050919050565b600060208201905081810360008301526132cc81612e32565b9050919050565b600060208201905081810360008301526132ec81612e55565b9050919050565b6000602082019050818103600083015261330c81612e78565b9050919050565b60006020820190506133286000830184612edc565b92915050565b6000613338613349565b9050613344828261366a565b919050565b6000604051905090565b600067ffffffffffffffff82111561336e5761336d6137a2565b5b602082029050602081019050919050565b600067ffffffffffffffff82111561339a576133996137a2565b5b6133a3826137d1565b9050602081019050919050565b6000819050602082019050919050565b6000819050602082019050919050565b60008190508160005260206000209050919050565b600081519050919050565b600081519050919050565b600081519050919050565b600081519050919050565b6000602082019050919050565b6000602082019050919050565b600082825260208201905092915050565b600082825260208201905092915050565b600082825260208201905092915050565b600082825260208201905092915050565b600082825260208201905092915050565b600081905092915050565b6000613496826135c8565b91506134a1836135c8565b9250827fffffffffffffffffffffffffffffffffffffffffffffffffffffffffffffffff038211156134d6576134d5613715565b5b828201905092915050565b60006134ec826135c8565b91506134f7836135c8565b92508261350757613506613744565b5b828204905092915050565b600061351d826135c8565b9150613528836135c8565b92508282101561353b5761353a613715565b5b828203905092915050565b6000613551826135a8565b9050919050565b60008115159050919050565b6000819050919050565b60007fffffffff0000000000000000000000000000000000000000000000000000000082169050919050565b600061ffff82169050919050565b600073ffffffffffffffffffffffffffffffffffffffff82169050919050565b6000819050919050565b600063ffffffff82169050919050565b600067ffffffffffffffff82169050919050565b82818337600083830152505050565b60005b83811015613623578082015181840152602081019050613608565b83811115613632576000848401525b50505050565b6000600282049050600182168061365057607f821691505b6020821081141561366457613663613773565b5b50919050565b613673826137d1565b810181811067ffffffffffffffff82111715613692576136916137a2565b5b80604052505050565b60006136a6826135c8565b91507fffffffffffffffffffffffffffffffffffffffffffffffffffffffffffffffff8214156136d9576136d8613715565b5b600182019050919050565b60006136ef826135c8565b91506136fa836135c8565b92508261370a57613709613744565b5b828206905092915050565b7f4e487b7100000000000000000000000000000000000000000000000000000000600052601160045260246000fd5b7f4e487b7100000000000000000000000000000000000000000000000000000000600052601260045260246000fd5b7f4e487b7100000000000000000000000000000000000000000000000000000000600052602260045260246000fd5b7f4e487b7100000000000000000000000000000000000000000000000000000000600052604160045260246000fd5b6000601f19601f8301169050919050565b7f4552433732313a207472616e7366657220746f206e6f6e20455243373231526560008201527f63656976657220696d706c656d656e7465720000000000000000000000000000602082015250565b7f4552433732313a207472616e736665722066726f6d20696e636f72726563742060008201527f6f776e6572000000000000000000000000000000000000000000000000000000602082015250565b7f4552433732313a20746f6b656e20616c7265616479206d696e74656400000000600082015250565b7f4552433732313a207472616e7366657220746f20746865207a65726f2061646460008201527f7265737300000000000000000000000000000000000000000000000000000000602082015250565b7f4552433732313a20617070726f766520746f2063616c6c657200000000000000600082015250565b7f4552433732313a206f70657261746f7220717565727920666f72206e6f6e657860008201527f697374656e7420746f6b656e0000000000000000000000000000000000000000602082015250565b7f4552433732313a20617070726f76652063616c6c6572206973206e6f74206f7760008201527f6e6572206e6f7220617070726f76656420666f7220616c6c0000000000000000602082015250565b7f4552433732313a2062616c616e636520717565727920666f7220746865207a6560008201527f726f206164647265737300000000000000000000000000000000000000000000602082015250565b7f4552433732313a206f776e657220717565727920666f72206e6f6e657869737460008201527f656e7420746f6b656e0000000000000000000000000000000000000000000000602082015250565b7f45524337323155524953746f726167653a2055524920736574206f66206e6f6e60008201527f6578697374656e7420746f6b656e000000000000000000000000000000000000602082015250565b7f4552433732313a206d696e7420746f20746865207a65726f2061646472657373600082015250565b7f45524337323155524953746f726167653a2055524920717565727920666f722060008201527f6e6f6e6578697374656e7420746f6b656e000000000000000000000000000000602082015250565b7f4552433732313a20617070726f76656420717565727920666f72206e6f6e657860008201527f697374656e7420746f6b656e0000000000000000000000000000000000000000602082015250565b7f4552433732314d657461646174613a2055524920717565727920666f72206e6f60008201527f6e6578697374656e7420746f6b656e0000000000000000000000000000000000602082015250565b7f4552433732313a20617070726f76616c20746f2063757272656e74206f776e6560008201527f7200000000000000000000000000000000000000000000000000000000000000602082015250565b7f4552433732313a207472616e736665722063616c6c6572206973206e6f74206f60008201527f776e6572206e6f7220617070726f766564000000000000000000000000000000602082015250565b7f576f756c6420657863656564206d617820737570706c79000000000000000000600082015250565b7f2f00000000000000000000000000000000000000000000000000000000000000600082015250565b613cbb81613546565b8114613cc657600080fd5b50565b613cd281613558565b8114613cdd57600080fd5b50565b613ce98161356e565b8114613cf457600080fd5b50565b613d00816135c8565b8114613d0b57600080fd5b5056fea2646970667358221220c54e0e3e05f422d7e2d866ebf1cc20e1165ef32f5413377406de7e0404187f3f64736f6c63430008040033",
  "linkReferences": {},
  "deployedLinkReferences": {}
}