{
  "_format": "hh-sol-artifact-1",
  "contractName": "PetsNFTVRF",
  "sourceName": "contracts/PetsNFTVRF.sol",
  "abi": [
    {
      "inputs": [
        {
          "internalType": "string",
          "name": "baseURI",
          "type": "string"
        },
        {
          "internalType": "string",
          "name": "name",
          "type": "string"
        },
        {
          "internalType": "string",
          "name": "symbol",
          "type": "string"
        },
        {
          "internalType": "string[]",
          "name": "NFTs",
          "type": "string[]"
        },
        {
          "internalType": "uint64",
          "name": "subscriptionId",
          "type": "uint64"
        }
      ],
      "stateMutability": "nonpayable",
      "type": "constructor"
    },
    {
      "inputs": [
        {
          "internalType": "address",
          "name": "have",
          "type": "address"
        },
        {
          "internalType": "address",
          "name": "want",
          "type": "address"
        }
      ],
      "name": "OnlyCoordinatorCanFulfill",
      "type": "error"
    },
    {
      "anonymous": false,
      "inputs": [
        {
          "indexed": true,
          "internalType": "address",
          "name": "owner",
          "type": "address"
        },
        {
          "indexed": true,
          "internalType": "address",
          "name": "approved",
          "type": "address"
        },
        {
          "indexed": true,
          "internalType": "uint256",
          "name": "tokenId",
          "type": "uint256"
        }
      ],
      "name": "Approval",
      "type": "event"
    },
    {
      "anonymous": false,
      "inputs": [
        {
          "indexed": true,
          "internalType": "address",
          "name": "owner",
          "type": "address"
        },
        {
          "indexed": true,
          "internalType": "address",
          "name": "operator",
          "type": "address"
        },
        {
          "indexed": false,
          "internalType": "bool",
          "name": "approved",
          "type": "bool"
        }
      ],
      "name": "ApprovalForAll",
      "type": "event"
    },
    {
      "anonymous": false,
      "inputs": [
        {
          "indexed": false,
          "internalType": "address",
          "name": "owner",
          "type": "address"
        },
        {
          "indexed": false,
          "internalType": "uint256",
          "name": "requestId",
          "type": "uint256"
        }
      ],
      "name": "NewRandomNumberRequest",
      "type": "event"
    },
    {
      "anonymous": false,
      "inputs": [
        {
          "indexed": false,
          "internalType": "address",
          "name": "owner",
          "type": "address"
        },
        {
          "indexed": false,
          "internalType": "uint256",
          "name": "tokenId",
          "type": "uint256"
        }
      ],
      "name": "NewTokenMinted",
      "type": "event"
    },
    {
      "anonymous": false,
      "inputs": [
        {
          "indexed": true,
          "internalType": "address",
          "name": "from",
          "type": "address"
        },
        {
          "indexed": true,
          "internalType": "address",
          "name": "to",
          "type": "address"
        },
        {
          "indexed": true,
          "internalType": "uint256",
          "name": "tokenId",
          "type": "uint256"
        }
      ],
      "name": "Transfer",
      "type": "event"
    },
    {
      "inputs": [
        {
          "internalType": "address",
          "name": "to",
          "type": "address"
        },
        {
          "internalType": "uint256",
          "name": "tokenId",
          "type": "uint256"
        }
      ],
      "name": "approve",
      "outputs": [],
      "stateMutability": "nonpayable",
      "type": "function"
    },
    {
      "inputs": [
        {
          "internalType": "address",
          "name": "owner",
          "type": "address"
        }
      ],
      "name": "balanceOf",
      "outputs": [
        {
          "internalType": "uint256",
          "name": "",
          "type": "uint256"
        }
      ],
      "stateMutability": "view",
      "type": "function"
    },
    {
      "inputs": [
        {
          "internalType": "uint256",
          "name": "tokenId",
          "type": "uint256"
        }
      ],
      "name": "getApproved",
      "outputs": [
        {
          "internalType": "address",
          "name": "",
          "type": "address"
        }
      ],
      "stateMutability": "view",
      "type": "function"
    },
    {
      "inputs": [],
      "name": "getAvailableNFTs",
      "outputs": [
        {
          "internalType": "string[]",
          "name": "",
          "type": "string[]"
        }
      ],
      "stateMutability": "view",
      "type": "function"
    },
    {
      "inputs": [],
      "name": "getMaxSupply",
      "outputs": [
        {
          "internalType": "uint256",
          "name": "",
          "type": "uint256"
        }
      ],
      "stateMutability": "view",
      "type": "function"
    },
    {
      "inputs": [],
      "name": "getNumberOfAvailableNFTs",
      "outputs": [
        {
          "internalType": "uint256",
          "name": "",
          "type": "uint256"
        }
      ],
      "stateMutability": "view",
      "type": "function"
    },
    {
      "inputs": [
        {
          "internalType": "address",
          "name": "owner",
          "type": "address"
        }
      ],
      "name": "getOwnersTokens",
      "outputs": [
        {
          "internalType": "uint256[]",
          "name": "",
          "type": "uint256[]"
        }
      ],
      "stateMutability": "view",
      "type": "function"
    },
    {
      "inputs": [
        {
          "internalType": "address",
          "name": "owner",
          "type": "address"
        },
        {
          "internalType": "address",
          "name": "operator",
          "type": "address"
        }
      ],
      "name": "isApprovedForAll",
      "outputs": [
        {
          "internalType": "bool",
          "name": "",
          "type": "bool"
        }
      ],
      "stateMutability": "view",
      "type": "function"
    },
    {
      "inputs": [],
      "name": "mintNFT",
      "outputs": [],
      "stateMutability": "nonpayable",
      "type": "function"
    },
    {
      "inputs": [],
      "name": "name",
      "outputs": [
        {
          "internalType": "string",
          "name": "",
          "type": "string"
        }
      ],
      "stateMutability": "view",
      "type": "function"
    },
    {
      "inputs": [
        {
          "internalType": "uint256",
          "name": "tokenId",
          "type": "uint256"
        }
      ],
      "name": "ownerOf",
      "outputs": [
        {
          "internalType": "address",
          "name": "",
          "type": "address"
        }
      ],
      "stateMutability": "view",
      "type": "function"
    },
    {
      "inputs": [
        {
          "internalType": "uint256",
          "name": "requestId",
          "type": "uint256"
        },
        {
          "internalType": "uint256[]",
          "name": "randomWords",
          "type": "uint256[]"
        }
      ],
      "name": "rawFulfillRandomWords",
      "outputs": [],
      "stateMutability": "nonpayable",
      "type": "function"
    },
    {
      "inputs": [
        {
          "internalType": "uint256",
          "name": "",
          "type": "uint256"
        }
      ],
      "name": "s_randomWords",
      "outputs": [
        {
          "internalType": "uint256",
          "name": "",
          "type": "uint256"
        }
      ],
      "stateMutability": "view",
      "type": "function"
    },
    {
      "inputs": [],
      "name": "s_requestId",
      "outputs": [
        {
          "internalType": "uint256",
          "name": "",
          "type": "uint256"
        }
      ],
      "stateMutability": "view",
      "type": "function"
    },
    {
      "inputs": [
        {
          "internalType": "address",
          "name": "from",
          "type": "address"
        },
        {
          "internalType": "address",
          "name": "to",
          "type": "address"
        },
        {
          "internalType": "uint256",
          "name": "tokenId",
          "type": "uint256"
        }
      ],
      "name": "safeTransferFrom",
      "outputs": [],
      "stateMutability": "nonpayable",
      "type": "function"
    },
    {
      "inputs": [
        {
          "internalType": "address",
          "name": "from",
          "type": "address"
        },
        {
          "internalType": "address",
          "name": "to",
          "type": "address"
        },
        {
          "internalType": "uint256",
          "name": "tokenId",
          "type": "uint256"
        },
        {
          "internalType": "bytes",
          "name": "_data",
          "type": "bytes"
        }
      ],
      "name": "safeTransferFrom",
      "outputs": [],
      "stateMutability": "nonpayable",
      "type": "function"
    },
    {
      "inputs": [
        {
          "internalType": "address",
          "name": "operator",
          "type": "address"
        },
        {
          "internalType": "bool",
          "name": "approved",
          "type": "bool"
        }
      ],
      "name": "setApprovalForAll",
      "outputs": [],
      "stateMutability": "nonpayable",
      "type": "function"
    },
    {
      "inputs": [
        {
          "internalType": "bytes4",
          "name": "interfaceId",
          "type": "bytes4"
        }
      ],
      "name": "supportsInterface",
      "outputs": [
        {
          "internalType": "bool",
          "name": "",
          "type": "bool"
        }
      ],
      "stateMutability": "view",
      "type": "function"
    },
    {
      "inputs": [],
      "name": "symbol",
      "outputs": [
        {
          "internalType": "string",
          "name": "",
          "type": "string"
        }
      ],
      "stateMutability": "view",
      "type": "function"
    },
    {
      "inputs": [
        {
          "internalType": "uint256",
          "name": "tokenId",
          "type": "uint256"
        }
      ],
      "name": "tokenURI",
      "outputs": [
        {
          "internalType": "string",
          "name": "",
          "type": "string"
        }
      ],
      "stateMutability": "view",
      "type": "function"
    },
    {
      "inputs": [
        {
          "internalType": "address",
          "name": "from",
          "type": "address"
        },
        {
          "internalType": "address",
          "name": "to",
          "type": "address"
        },
        {
          "internalType": "uint256",
          "name": "tokenId",
          "type": "uint256"
        }
      ],
      "name": "transferFrom",
      "outputs": [],
      "stateMutability": "nonpayable",
      "type": "function"
    }
  ],
  "bytecode": "0x60a0604052736168499c0cffcacd319c818142124b7a15e857ab601060006101000a81548173ffffffffffffffffffffffffffffffffffffffff021916908373ffffffffffffffffffffffffffffffffffffffff1602179055507fd89b2bf150e3b9e13446986e571fb9cab24b13cea0a43ea20a6049a85cc807cc60001b60115562030d40601260006101000a81548163ffffffff021916908363ffffffff1602179055506003601260046101000a81548161ffff021916908361ffff1602179055506001601260066101000a81548163ffffffff021916908363ffffffff160217905550348015620000f157600080fd5b50604051620042b0380380620042b0833981810160405281019062000117919062000544565b601060009054906101000a900473ffffffffffffffffffffffffffffffffffffffff16848481600090805190602001906200015492919062000279565b5080600190805190602001906200016d92919062000279565b5050508073ffffffffffffffffffffffffffffffffffffffff1660808173ffffffffffffffffffffffffffffffffffffffff1660601b81525050508460089080519060200190620001c092919062000279565b5081600b9080519060200190620001d99291906200030a565b50815160098190555080600f60146101000a81548167ffffffffffffffff021916908367ffffffffffffffff160217905550601060009054906101000a900473ffffffffffffffffffffffffffffffffffffffff16600f60006101000a81548173ffffffffffffffffffffffffffffffffffffffff021916908373ffffffffffffffffffffffffffffffffffffffff1602179055505050505050620007f7565b828054620002879062000702565b90600052602060002090601f016020900481019282620002ab5760008555620002f7565b82601f10620002c657805160ff1916838001178555620002f7565b82800160010185558215620002f7579182015b82811115620002f6578251825591602001919060010190620002d9565b5b50905062000306919062000371565b5090565b8280548282559060005260206000209081019282156200035e579160200282015b828111156200035d5782518290805190602001906200034c92919062000279565b50916020019190600101906200032b565b5b5090506200036d919062000390565b5090565b5b808211156200038c57600081600090555060010162000372565b5090565b5b80821115620003b45760008181620003aa9190620003b8565b5060010162000391565b5090565b508054620003c69062000702565b6000825580601f10620003da5750620003fb565b601f016020900490600052602060002090810190620003fa919062000371565b5b50565b6000620004156200040f8462000653565b6200062a565b905080838252602082019050828560208602820111156200043557600080fd5b60005b858110156200048457815167ffffffffffffffff8111156200045957600080fd5b80860162000468898262000500565b8552602085019450602084019350505060018101905062000438565b5050509392505050565b6000620004a56200049f8462000682565b6200062a565b905082815260208101848484011115620004be57600080fd5b620004cb848285620006cc565b509392505050565b600082601f830112620004e557600080fd5b8151620004f7848260208601620003fe565b91505092915050565b600082601f8301126200051257600080fd5b8151620005248482602086016200048e565b91505092915050565b6000815190506200053e81620007dd565b92915050565b600080600080600060a086880312156200055d57600080fd5b600086015167ffffffffffffffff8111156200057857600080fd5b620005868882890162000500565b955050602086015167ffffffffffffffff811115620005a457600080fd5b620005b28882890162000500565b945050604086015167ffffffffffffffff811115620005d057600080fd5b620005de8882890162000500565b935050606086015167ffffffffffffffff811115620005fc57600080fd5b6200060a88828901620004d3565b92505060806200061d888289016200052d565b9150509295509295909350565b60006200063662000649565b905062000644828262000738565b919050565b6000604051905090565b600067ffffffffffffffff8211156200067157620006706200079d565b5b602082029050602081019050919050565b600067ffffffffffffffff821115620006a0576200069f6200079d565b5b620006ab82620007cc565b9050602081019050919050565b600067ffffffffffffffff82169050919050565b60005b83811015620006ec578082015181840152602081019050620006cf565b83811115620006fc576000848401525b50505050565b600060028204905060018216806200071b57607f821691505b602082108114156200073257620007316200076e565b5b50919050565b6200074382620007cc565b810181811067ffffffffffffffff821117156200076557620007646200079d565b5b80604052505050565b7f4e487b7100000000000000000000000000000000000000000000000000000000600052602260045260246000fd5b7f4e487b7100000000000000000000000000000000000000000000000000000000600052604160045260246000fd5b6000601f19601f8301169050919050565b620007e881620006b8565b8114620007f457600080fd5b50565b60805160601c613a936200081d600039600081816109aa01526109fe0152613a936000f3fe608060405234801561001057600080fd5b50600436106101375760003560e01c80636352211e116100b8578063b88d4fde1161007c578063b88d4fde14610328578063c87b56dd14610344578063daa9855c14610374578063e89e106a146103a4578063e985e9c5146103c2578063f6eaffc8146103f257610137565b80636352211e1461027057806370a08231146102a05780638b8ae32b146102d057806395d89b41146102ee578063a22cb4651461030c57610137565b80631fe543e3116100ff5780631fe543e3146101e057806323b872dd146101fc57806332702c951461021857806342842e0e146102365780634c0f38c21461025257610137565b806301ffc9a71461013c57806306fdde031461016c578063081812fc1461018a578063095ea7b3146101ba57806314f710fe146101d6575b600080fd5b61015660048036038101906101519190612618565b610422565b6040516101639190612db2565b60405180910390f35b610174610504565b6040516101819190612e20565b60405180910390f35b6101a4600480360381019061019f919061266a565b610596565b6040516101b19190612cb5565b60405180910390f35b6101d460048036038101906101cf91906125dc565b61061b565b005b6101de610733565b005b6101fa60048036038101906101f591906126bc565b6109a8565b005b610216600480360381019061021191906124d6565b610a68565b005b610220610ac8565b60405161022d9190612d6e565b60405180910390f35b610250600480360381019061024b91906124d6565b610ba1565b005b61025a610bc1565b6040516102679190613062565b60405180910390f35b61028a6004803603810190610285919061266a565b610bcb565b6040516102979190612cb5565b60405180910390f35b6102ba60048036038101906102b59190612471565b610c7d565b6040516102c79190613062565b60405180910390f35b6102d8610d35565b6040516102e59190613062565b60405180910390f35b6102f6610d42565b6040516103039190612e20565b60405180910390f35b610326600480360381019061032191906125a0565b610dd4565b005b610342600480360381019061033d9190612525565b610dea565b005b61035e6004803603810190610359919061266a565b610e4c565b60405161036b9190612e20565b60405180910390f35b61038e60048036038101906103899190612471565b610f9e565b60405161039b9190612d90565b60405180910390f35b6103ac611035565b6040516103b99190613062565b60405180910390f35b6103dc60048036038101906103d7919061249a565b61103b565b6040516103e99190612db2565b60405180910390f35b61040c6004803603810190610407919061266a565b6110cf565b6040516104199190613062565b60405180910390f35b60007f80ac58cd000000000000000000000000000000000000000000000000000000007bffffffffffffffffffffffffffffffffffffffffffffffffffffffff1916827bffffffffffffffffffffffffffffffffffffffffffffffffffffffff191614806104ed57507f5b5e139f000000000000000000000000000000000000000000000000000000007bffffffffffffffffffffffffffffffffffffffffffffffffffffffff1916827bffffffffffffffffffffffffffffffffffffffffffffffffffffffff1916145b806104fd57506104fc826110f3565b5b9050919050565b60606000805461051390613387565b80601f016020809104026020016040519081016040528092919081815260200182805461053f90613387565b801561058c5780601f106105615761010080835404028352916020019161058c565b820191906000526020600020905b81548152906001019060200180831161056f57829003601f168201915b5050505050905090565b60006105a18261115d565b6105e0576040517f08c379a00000000000000000000000000000000000000000000000000000000081526004016105d790612fc2565b60405180910390fd5b6004600083815260200190815260200160002060009054906101000a900473ffffffffffffffffffffffffffffffffffffffff169050919050565b600061062682610bcb565b90508073ffffffffffffffffffffffffffffffffffffffff168373ffffffffffffffffffffffffffffffffffffffff161415610697576040517f08c379a000000000000000000000000000000000000000000000000000000000815260040161068e90613002565b60405180910390fd5b8073ffffffffffffffffffffffffffffffffffffffff166106b66111c9565b73ffffffffffffffffffffffffffffffffffffffff1614806106e557506106e4816106df6111c9565b61103b565b5b610724576040517f08c379a000000000000000000000000000000000000000000000000000000000815260040161071b90612f02565b60405180910390fd5b61072e83836111d1565b505050565b600061073f600761128a565b90506009548110610785576040517f08c379a000000000000000000000000000000000000000000000000000000000815260040161077c90613042565b60405180910390fd5b600f60009054906101000a900473ffffffffffffffffffffffffffffffffffffffff1673ffffffffffffffffffffffffffffffffffffffff16635d3b1d30601154600f60149054906101000a900467ffffffffffffffff16601260049054906101000a900461ffff16601260009054906101000a900463ffffffff16601260069054906101000a900463ffffffff166040518663ffffffff1660e01b8152600401610834959493929190612dcd565b602060405180830381600087803b15801561084e57600080fd5b505af1158015610862573d6000803e3d6000fd5b505050506040513d601f19601f820116820180604052508101906108869190612693565b60148190555033600d6000601454815260200190815260200160002060006101000a81548173ffffffffffffffffffffffffffffffffffffffff021916908373ffffffffffffffffffffffffffffffffffffffff16021790555080600e60006014548152602001908152602001600020819055506109046007611298565b600c60003373ffffffffffffffffffffffffffffffffffffffff1673ffffffffffffffffffffffffffffffffffffffff1681526020019081526020016000208190806001815401808255809150506001900390600052602060002001600090919091909150557f84980c1e76e2e53228cb08273e20ec8e3089b115175de2f3dafbc1a3e0d507ae3360145460405161099d929190612d45565b60405180910390a150565b7f000000000000000000000000000000000000000000000000000000000000000073ffffffffffffffffffffffffffffffffffffffff163373ffffffffffffffffffffffffffffffffffffffff1614610a5a57337f00000000000000000000000000000000000000000000000000000000000000006040517f1cf993f4000000000000000000000000000000000000000000000000000000008152600401610a51929190612cd0565b60405180910390fd5b610a6482826112ae565b5050565b610a79610a736111c9565b82611466565b610ab8576040517f08c379a0000000000000000000000000000000000000000000000000000000008152600401610aaf90613022565b60405180910390fd5b610ac3838383611544565b505050565b6060600b805480602002602001604051908101604052809291908181526020016000905b82821015610b98578382906000526020600020018054610b0b90613387565b80601f0160208091040260200160405190810160405280929190818152602001828054610b3790613387565b8015610b845780601f10610b5957610100808354040283529160200191610b84565b820191906000526020600020905b815481529060010190602001808311610b6757829003601f168201915b505050505081526020019060010190610aec565b50505050905090565b610bbc83838360405180602001604052806000815250610dea565b505050565b6000600954905090565b6000806002600084815260200190815260200160002060009054906101000a900473ffffffffffffffffffffffffffffffffffffffff169050600073ffffffffffffffffffffffffffffffffffffffff168173ffffffffffffffffffffffffffffffffffffffff161415610c74576040517f08c379a0000000000000000000000000000000000000000000000000000000008152600401610c6b90612f42565b60405180910390fd5b80915050919050565b60008073ffffffffffffffffffffffffffffffffffffffff168273ffffffffffffffffffffffffffffffffffffffff161415610cee576040517f08c379a0000000000000000000000000000000000000000000000000000000008152600401610ce590612f22565b60405180910390fd5b600360008373ffffffffffffffffffffffffffffffffffffffff1673ffffffffffffffffffffffffffffffffffffffff168152602001908152602001600020549050919050565b6000600b80549050905090565b606060018054610d5190613387565b80601f0160208091040260200160405190810160405280929190818152602001828054610d7d90613387565b8015610dca5780601f10610d9f57610100808354040283529160200191610dca565b820191906000526020600020905b815481529060010190602001808311610dad57829003601f168201915b5050505050905090565b610de6610ddf6111c9565b83836117ab565b5050565b610dfb610df56111c9565b83611466565b610e3a576040517f08c379a0000000000000000000000000000000000000000000000000000000008152600401610e3190613022565b60405180910390fd5b610e4684848484611918565b50505050565b6060610e578261115d565b610e96576040517f08c379a0000000000000000000000000000000000000000000000000000000008152600401610e8d90612fa2565b60405180910390fd5b6000600660008481526020019081526020016000208054610eb690613387565b80601f0160208091040260200160405190810160405280929190818152602001828054610ee290613387565b8015610f2f5780601f10610f0457610100808354040283529160200191610f2f565b820191906000526020600020905b815481529060010190602001808311610f1257829003601f168201915b505050505090506000610f40611974565b9050600081511415610f56578192505050610f99565b600082511115610f8b578082604051602001610f73929190612c58565b60405160208183030381529060405292505050610f99565b610f948461199c565b925050505b919050565b6060600c60008373ffffffffffffffffffffffffffffffffffffffff1673ffffffffffffffffffffffffffffffffffffffff16815260200190815260200160002080548060200260200160405190810160405280929190818152602001828054801561102957602002820191906000526020600020905b815481526020019060010190808311611015575b50505050509050919050565b60145481565b6000600560008473ffffffffffffffffffffffffffffffffffffffff1673ffffffffffffffffffffffffffffffffffffffff16815260200190815260200160002060008373ffffffffffffffffffffffffffffffffffffffff1673ffffffffffffffffffffffffffffffffffffffff16815260200190815260200160002060009054906101000a900460ff16905092915050565b601381815481106110df57600080fd5b906000526020600020016000915090505481565b60007f01ffc9a7000000000000000000000000000000000000000000000000000000007bffffffffffffffffffffffffffffffffffffffffffffffffffffffff1916827bffffffffffffffffffffffffffffffffffffffffffffffffffffffff1916149050919050565b60008073ffffffffffffffffffffffffffffffffffffffff166002600084815260200190815260200160002060009054906101000a900473ffffffffffffffffffffffffffffffffffffffff1673ffffffffffffffffffffffffffffffffffffffff1614159050919050565b600033905090565b816004600083815260200190815260200160002060006101000a81548173ffffffffffffffffffffffffffffffffffffffff021916908373ffffffffffffffffffffffffffffffffffffffff160217905550808273ffffffffffffffffffffffffffffffffffffffff1661124483610bcb565b73ffffffffffffffffffffffffffffffffffffffff167f8c5be1e5ebec7d5bd14f71427d1e84f3dd0314c0f7b2291e5b200ac8c7c3b92560405160405180910390a45050565b600081600001549050919050565b6001816000016000828254019250508190555050565b6000600b80549050826000815181106112f0577f4e487b7100000000000000000000000000000000000000000000000000000000600052603260045260246000fd5b60200260200101516113029190613433565b90506000600b8281548110611340577f4e487b7100000000000000000000000000000000000000000000000000000000600052603260045260246000fd5b9060005260206000200160405160200161135a9190612c7c565b60405160208183030381529060405290506113bb600d600086815260200190815260200160002060009054906101000a900473ffffffffffffffffffffffffffffffffffffffff16600e600087815260200190815260200160002054611a43565b6113d8600e60008681526020019081526020016000205482611a61565b6113e182611ad5565b7f5dd00ffcb6618cfa61061cff0e31d2e5871199cfca7a136a4ada2dafa91ab941600d600086815260200190815260200160002060009054906101000a900473ffffffffffffffffffffffffffffffffffffffff16600e600087815260200190815260200160002054604051611458929190612d45565b60405180910390a150505050565b60006114718261115d565b6114b0576040517f08c379a00000000000000000000000000000000000000000000000000000000081526004016114a790612ee2565b60405180910390fd5b60006114bb83610bcb565b90508073ffffffffffffffffffffffffffffffffffffffff168473ffffffffffffffffffffffffffffffffffffffff16148061152a57508373ffffffffffffffffffffffffffffffffffffffff1661151284610596565b73ffffffffffffffffffffffffffffffffffffffff16145b8061153b575061153a818561103b565b5b91505092915050565b8273ffffffffffffffffffffffffffffffffffffffff1661156482610bcb565b73ffffffffffffffffffffffffffffffffffffffff16146115ba576040517f08c379a00000000000000000000000000000000000000000000000000000000081526004016115b190612e62565b60405180910390fd5b600073ffffffffffffffffffffffffffffffffffffffff168273ffffffffffffffffffffffffffffffffffffffff16141561162a576040517f08c379a000000000000000000000000000000000000000000000000000000000815260040161162190612ea2565b60405180910390fd5b611635838383611bdf565b6116406000826111d1565b6001600360008573ffffffffffffffffffffffffffffffffffffffff1673ffffffffffffffffffffffffffffffffffffffff16815260200190815260200160002060008282546116909190613261565b925050819055506001600360008473ffffffffffffffffffffffffffffffffffffffff1673ffffffffffffffffffffffffffffffffffffffff16815260200190815260200160002060008282546116e791906131da565b92505081905550816002600083815260200190815260200160002060006101000a81548173ffffffffffffffffffffffffffffffffffffffff021916908373ffffffffffffffffffffffffffffffffffffffff160217905550808273ffffffffffffffffffffffffffffffffffffffff168473ffffffffffffffffffffffffffffffffffffffff167fddf252ad1be2c89b69c2b068fc378daa952ba7f163c4a11628f55a4df523b3ef60405160405180910390a46117a6838383611be4565b505050565b8173ffffffffffffffffffffffffffffffffffffffff168373ffffffffffffffffffffffffffffffffffffffff16141561181a576040517f08c379a000000000000000000000000000000000000000000000000000000000815260040161181190612ec2565b60405180910390fd5b80600560008573ffffffffffffffffffffffffffffffffffffffff1673ffffffffffffffffffffffffffffffffffffffff16815260200190815260200160002060008473ffffffffffffffffffffffffffffffffffffffff1673ffffffffffffffffffffffffffffffffffffffff16815260200190815260200160002060006101000a81548160ff0219169083151502179055508173ffffffffffffffffffffffffffffffffffffffff168373ffffffffffffffffffffffffffffffffffffffff167f17307eab39ab6107e8899845ad3d59bd9653f200f220920489ca2b5937696c318360405161190b9190612db2565b60405180910390a3505050565b611923848484611544565b61192f84848484611be9565b61196e576040517f08c379a000000000000000000000000000000000000000000000000000000000815260040161196590612e42565b60405180910390fd5b50505050565b606060086040516020016119889190612c93565b604051602081830303815290604052905090565b60606119a78261115d565b6119e6576040517f08c379a00000000000000000000000000000000000000000000000000000000081526004016119dd90612fe2565b60405180910390fd5b60006119f0611974565b90506000815111611a105760405180602001604052806000815250611a3b565b80611a1a84611d80565b604051602001611a2b929190612c58565b6040516020818303038152906040525b915050919050565b611a5d828260405180602001604052806000815250611f2d565b5050565b611a6a8261115d565b611aa9576040517f08c379a0000000000000000000000000000000000000000000000000000000008152600401611aa090612f62565b60405180910390fd5b80600660008481526020019081526020016000209080519060200190611ad0929190612185565b505050565b600b6001600b80549050611ae99190613261565b81548110611b20577f4e487b7100000000000000000000000000000000000000000000000000000000600052603260045260246000fd5b90600052602060002001600b8281548110611b64577f4e487b7100000000000000000000000000000000000000000000000000000000600052603260045260246000fd5b90600052602060002001908054611b7a90613387565b611b8592919061220b565b50600b805480611bbe577f4e487b7100000000000000000000000000000000000000000000000000000000600052603160045260246000fd5b600190038181906000526020600020016000611bda9190612298565b905550565b505050565b505050565b6000611c0a8473ffffffffffffffffffffffffffffffffffffffff16611f88565b15611d73578373ffffffffffffffffffffffffffffffffffffffff1663150b7a02611c336111c9565b8786866040518563ffffffff1660e01b8152600401611c559493929190612cf9565b602060405180830381600087803b158015611c6f57600080fd5b505af1925050508015611ca057506040513d601f19601f82011682018060405250810190611c9d9190612641565b60015b611d23573d8060008114611cd0576040519150601f19603f3d011682016040523d82523d6000602084013e611cd5565b606091505b50600081511415611d1b576040517f08c379a0000000000000000000000000000000000000000000000000000000008152600401611d1290612e42565b60405180910390fd5b805181602001fd5b63150b7a0260e01b7bffffffffffffffffffffffffffffffffffffffffffffffffffffffff1916817bffffffffffffffffffffffffffffffffffffffffffffffffffffffff191614915050611d78565b600190505b949350505050565b60606000821415611dc8576040518060400160405280600181526020017f30000000000000000000000000000000000000000000000000000000000000008152509050611f28565b600082905060005b60008214611dfa578080611de3906133ea565b915050600a82611df39190613230565b9150611dd0565b60008167ffffffffffffffff811115611e3c577f4e487b7100000000000000000000000000000000000000000000000000000000600052604160045260246000fd5b6040519080825280601f01601f191660200182016040528015611e6e5781602001600182028036833780820191505090505b5090505b60008514611f2157600182611e879190613261565b9150600a85611e969190613433565b6030611ea291906131da565b60f81b818381518110611ede577f4e487b7100000000000000000000000000000000000000000000000000000000600052603260045260246000fd5b60200101907effffffffffffffffffffffffffffffffffffffffffffffffffffffffffffff1916908160001a905350600a85611f1a9190613230565b9450611e72565b8093505050505b919050565b611f378383611fab565b611f446000848484611be9565b611f83576040517f08c379a0000000000000000000000000000000000000000000000000000000008152600401611f7a90612e42565b60405180910390fd5b505050565b6000808273ffffffffffffffffffffffffffffffffffffffff163b119050919050565b600073ffffffffffffffffffffffffffffffffffffffff168273ffffffffffffffffffffffffffffffffffffffff16141561201b576040517f08c379a000000000000000000000000000000000000000000000000000000000815260040161201290612f82565b60405180910390fd5b6120248161115d565b15612064576040517f08c379a000000000000000000000000000000000000000000000000000000000815260040161205b90612e82565b60405180910390fd5b61207060008383611bdf565b6001600360008473ffffffffffffffffffffffffffffffffffffffff1673ffffffffffffffffffffffffffffffffffffffff16815260200190815260200160002060008282546120c091906131da565b92505081905550816002600083815260200190815260200160002060006101000a81548173ffffffffffffffffffffffffffffffffffffffff021916908373ffffffffffffffffffffffffffffffffffffffff160217905550808273ffffffffffffffffffffffffffffffffffffffff16600073ffffffffffffffffffffffffffffffffffffffff167fddf252ad1be2c89b69c2b068fc378daa952ba7f163c4a11628f55a4df523b3ef60405160405180910390a461218160008383611be4565b5050565b82805461219190613387565b90600052602060002090601f0160209004810192826121b357600085556121fa565b82601f106121cc57805160ff19168380011785556121fa565b828001600101855582156121fa579182015b828111156121f95782518255916020019190600101906121de565b5b50905061220791906122d8565b5090565b82805461221790613387565b90600052602060002090601f0160209004810192826122395760008555612287565b82601f1061224a5780548555612287565b8280016001018555821561228757600052602060002091601f016020900482015b8281111561228657825482559160010191906001019061226b565b5b50905061229491906122d8565b5090565b5080546122a490613387565b6000825580601f106122b657506122d5565b601f0160209004906000526020600020908101906122d491906122d8565b5b50565b5b808211156122f15760008160009055506001016122d9565b5090565b6000612308612303846130a2565b61307d565b9050808382526020820190508285602086028201111561232757600080fd5b60005b85811015612357578161233d8882612447565b84526020840193506020830192505060018101905061232a565b5050509392505050565b600061237461236f846130ce565b61307d565b90508281526020810184848401111561238c57600080fd5b612397848285613345565b509392505050565b6000813590506123ae81613a01565b92915050565b600082601f8301126123c557600080fd5b81356123d58482602086016122f5565b91505092915050565b6000813590506123ed81613a18565b92915050565b60008135905061240281613a2f565b92915050565b60008151905061241781613a2f565b92915050565b600082601f83011261242e57600080fd5b813561243e848260208601612361565b91505092915050565b60008135905061245681613a46565b92915050565b60008151905061246b81613a46565b92915050565b60006020828403121561248357600080fd5b60006124918482850161239f565b91505092915050565b600080604083850312156124ad57600080fd5b60006124bb8582860161239f565b92505060206124cc8582860161239f565b9150509250929050565b6000806000606084860312156124eb57600080fd5b60006124f98682870161239f565b935050602061250a8682870161239f565b925050604061251b86828701612447565b9150509250925092565b6000806000806080858703121561253b57600080fd5b60006125498782880161239f565b945050602061255a8782880161239f565b935050604061256b87828801612447565b925050606085013567ffffffffffffffff81111561258857600080fd5b6125948782880161241d565b91505092959194509250565b600080604083850312156125b357600080fd5b60006125c18582860161239f565b92505060206125d2858286016123de565b9150509250929050565b600080604083850312156125ef57600080fd5b60006125fd8582860161239f565b925050602061260e85828601612447565b9150509250929050565b60006020828403121561262a57600080fd5b6000612638848285016123f3565b91505092915050565b60006020828403121561265357600080fd5b600061266184828501612408565b91505092915050565b60006020828403121561267c57600080fd5b600061268a84828501612447565b91505092915050565b6000602082840312156126a557600080fd5b60006126b38482850161245c565b91505092915050565b600080604083850312156126cf57600080fd5b60006126dd85828601612447565b925050602083013567ffffffffffffffff8111156126fa57600080fd5b612706858286016123b4565b9150509250929050565b600061271c8383612875565b905092915050565b60006127308383612c1c565b60208301905092915050565b61274581613295565b82525050565b600061275682613134565b612760818561317a565b935083602082028501612772856130ff565b8060005b858110156127ae578484038952815161278f8582612710565b945061279a83613160565b925060208a01995050600181019050612776565b50829750879550505050505092915050565b60006127cb8261313f565b6127d5818561318b565b93506127e08361310f565b8060005b838110156128115781516127f88882612724565b97506128038361316d565b9250506001810190506127e4565b5085935050505092915050565b612827816132a7565b82525050565b612836816132b3565b82525050565b60006128478261314a565b612851818561319c565b9350612861818560208601613354565b61286a81613520565b840191505092915050565b600061288082613155565b61288a81856131ad565b935061289a818560208601613354565b6128a381613520565b840191505092915050565b60006128b982613155565b6128c381856131be565b93506128d3818560208601613354565b6128dc81613520565b840191505092915050565b60006128f282613155565b6128fc81856131cf565b935061290c818560208601613354565b80840191505092915050565b6000815461292581613387565b61292f81866131cf565b9450600182166000811461294a576001811461295b5761298e565b60ff1983168652818601935061298e565b6129648561311f565b60005b8381101561298657815481890152600182019150602081019050612967565b838801955050505b50505092915050565b60006129a46032836131be565b91506129af82613531565b604082019050919050565b60006129c76025836131be565b91506129d282613580565b604082019050919050565b60006129ea601c836131be565b91506129f5826135cf565b602082019050919050565b6000612a0d6024836131be565b9150612a18826135f8565b604082019050919050565b6000612a306019836131be565b9150612a3b82613647565b602082019050919050565b6000612a53602c836131be565b9150612a5e82613670565b604082019050919050565b6000612a766038836131be565b9150612a81826136bf565b604082019050919050565b6000612a99602a836131be565b9150612aa48261370e565b604082019050919050565b6000612abc6029836131be565b9150612ac78261375d565b604082019050919050565b6000612adf602e836131be565b9150612aea826137ac565b604082019050919050565b6000612b026020836131be565b9150612b0d826137fb565b602082019050919050565b6000612b256031836131be565b9150612b3082613824565b604082019050919050565b6000612b48602c836131be565b9150612b5382613873565b604082019050919050565b6000612b6b602f836131be565b9150612b76826138c2565b604082019050919050565b6000612b8e6021836131be565b9150612b9982613911565b604082019050919050565b6000612bb16031836131be565b9150612bbc82613960565b604082019050919050565b6000612bd46017836131be565b9150612bdf826139af565b602082019050919050565b6000612bf76001836131cf565b9150612c02826139d8565b600182019050919050565b612c16816132e9565b82525050565b612c2581613317565b82525050565b612c3481613317565b82525050565b612c4381613321565b82525050565b612c5281613331565b82525050565b6000612c6482856128e7565b9150612c7082846128e7565b91508190509392505050565b6000612c888284612918565b915081905092915050565b6000612c9f8284612918565b9150612caa82612bea565b915081905092915050565b6000602082019050612cca600083018461273c565b92915050565b6000604082019050612ce5600083018561273c565b612cf2602083018461273c565b9392505050565b6000608082019050612d0e600083018761273c565b612d1b602083018661273c565b612d286040830185612c2b565b8181036060830152612d3a818461283c565b905095945050505050565b6000604082019050612d5a600083018561273c565b612d676020830184612c2b565b9392505050565b60006020820190508181036000830152612d88818461274b565b905092915050565b60006020820190508181036000830152612daa81846127c0565b905092915050565b6000602082019050612dc7600083018461281e565b92915050565b600060a082019050612de2600083018861282d565b612def6020830187612c49565b612dfc6040830186612c0d565b612e096060830185612c3a565b612e166080830184612c3a565b9695505050505050565b60006020820190508181036000830152612e3a81846128ae565b905092915050565b60006020820190508181036000830152612e5b81612997565b9050919050565b60006020820190508181036000830152612e7b816129ba565b9050919050565b60006020820190508181036000830152612e9b816129dd565b9050919050565b60006020820190508181036000830152612ebb81612a00565b9050919050565b60006020820190508181036000830152612edb81612a23565b9050919050565b60006020820190508181036000830152612efb81612a46565b9050919050565b60006020820190508181036000830152612f1b81612a69565b9050919050565b60006020820190508181036000830152612f3b81612a8c565b9050919050565b60006020820190508181036000830152612f5b81612aaf565b9050919050565b60006020820190508181036000830152612f7b81612ad2565b9050919050565b60006020820190508181036000830152612f9b81612af5565b9050919050565b60006020820190508181036000830152612fbb81612b18565b9050919050565b60006020820190508181036000830152612fdb81612b3b565b9050919050565b60006020820190508181036000830152612ffb81612b5e565b9050919050565b6000602082019050818103600083015261301b81612b81565b9050919050565b6000602082019050818103600083015261303b81612ba4565b9050919050565b6000602082019050818103600083015261305b81612bc7565b9050919050565b60006020820190506130776000830184612c2b565b92915050565b6000613087613098565b905061309382826133b9565b919050565b6000604051905090565b600067ffffffffffffffff8211156130bd576130bc6134f1565b5b602082029050602081019050919050565b600067ffffffffffffffff8211156130e9576130e86134f1565b5b6130f282613520565b9050602081019050919050565b6000819050602082019050919050565b6000819050602082019050919050565b60008190508160005260206000209050919050565b600081519050919050565b600081519050919050565b600081519050919050565b600081519050919050565b6000602082019050919050565b6000602082019050919050565b600082825260208201905092915050565b600082825260208201905092915050565b600082825260208201905092915050565b600082825260208201905092915050565b600082825260208201905092915050565b600081905092915050565b60006131e582613317565b91506131f083613317565b9250827fffffffffffffffffffffffffffffffffffffffffffffffffffffffffffffffff0382111561322557613224613464565b5b828201905092915050565b600061323b82613317565b915061324683613317565b92508261325657613255613493565b5b828204905092915050565b600061326c82613317565b915061327783613317565b92508282101561328a57613289613464565b5b828203905092915050565b60006132a0826132f7565b9050919050565b60008115159050919050565b6000819050919050565b60007fffffffff0000000000000000000000000000000000000000000000000000000082169050919050565b600061ffff82169050919050565b600073ffffffffffffffffffffffffffffffffffffffff82169050919050565b6000819050919050565b600063ffffffff82169050919050565b600067ffffffffffffffff82169050919050565b82818337600083830152505050565b60005b83811015613372578082015181840152602081019050613357565b83811115613381576000848401525b50505050565b6000600282049050600182168061339f57607f821691505b602082108114156133b3576133b26134c2565b5b50919050565b6133c282613520565b810181811067ffffffffffffffff821117156133e1576133e06134f1565b5b80604052505050565b60006133f582613317565b91507fffffffffffffffffffffffffffffffffffffffffffffffffffffffffffffffff82141561342857613427613464565b5b600182019050919050565b600061343e82613317565b915061344983613317565b92508261345957613458613493565b5b828206905092915050565b7f4e487b7100000000000000000000000000000000000000000000000000000000600052601160045260246000fd5b7f4e487b7100000000000000000000000000000000000000000000000000000000600052601260045260246000fd5b7f4e487b7100000000000000000000000000000000000000000000000000000000600052602260045260246000fd5b7f4e487b7100000000000000000000000000000000000000000000000000000000600052604160045260246000fd5b6000601f19601f8301169050919050565b7f4552433732313a207472616e7366657220746f206e6f6e20455243373231526560008201527f63656976657220696d706c656d656e7465720000000000000000000000000000602082015250565b7f4552433732313a207472616e736665722066726f6d20696e636f72726563742060008201527f6f776e6572000000000000000000000000000000000000000000000000000000602082015250565b7f4552433732313a20746f6b656e20616c7265616479206d696e74656400000000600082015250565b7f4552433732313a207472616e7366657220746f20746865207a65726f2061646460008201527f7265737300000000000000000000000000000000000000000000000000000000602082015250565b7f4552433732313a20617070726f766520746f2063616c6c657200000000000000600082015250565b7f4552433732313a206f70657261746f7220717565727920666f72206e6f6e657860008201527f697374656e7420746f6b656e0000000000000000000000000000000000000000602082015250565b7f4552433732313a20617070726f76652063616c6c6572206973206e6f74206f7760008201527f6e6572206e6f7220617070726f76656420666f7220616c6c0000000000000000602082015250565b7f4552433732313a2062616c616e636520717565727920666f7220746865207a6560008201527f726f206164647265737300000000000000000000000000000000000000000000602082015250565b7f4552433732313a206f776e657220717565727920666f72206e6f6e657869737460008201527f656e7420746f6b656e0000000000000000000000000000000000000000000000602082015250565b7f45524337323155524953746f726167653a2055524920736574206f66206e6f6e60008201527f6578697374656e7420746f6b656e000000000000000000000000000000000000602082015250565b7f4552433732313a206d696e7420746f20746865207a65726f2061646472657373600082015250565b7f45524337323155524953746f726167653a2055524920717565727920666f722060008201527f6e6f6e6578697374656e7420746f6b656e000000000000000000000000000000602082015250565b7f4552433732313a20617070726f76656420717565727920666f72206e6f6e657860008201527f697374656e7420746f6b656e0000000000000000000000000000000000000000602082015250565b7f4552433732314d657461646174613a2055524920717565727920666f72206e6f60008201527f6e6578697374656e7420746f6b656e0000000000000000000000000000000000602082015250565b7f4552433732313a20617070726f76616c20746f2063757272656e74206f776e6560008201527f7200000000000000000000000000000000000000000000000000000000000000602082015250565b7f4552433732313a207472616e736665722063616c6c6572206973206e6f74206f60008201527f776e6572206e6f7220617070726f766564000000000000000000000000000000602082015250565b7f576f756c6420657863656564206d617820737570706c79000000000000000000600082015250565b7f2f00000000000000000000000000000000000000000000000000000000000000600082015250565b613a0a81613295565b8114613a1557600080fd5b50565b613a21816132a7565b8114613a2c57600080fd5b50565b613a38816132bd565b8114613a4357600080fd5b50565b613a4f81613317565b8114613a5a57600080fd5b5056fea26469706673582212208f36f86f5b91bdc4b8aeaa788e9cdd5febf60319a7e6e9a5abf3ca2eae15156464736f6c63430008040033",
  "linkReferences": {},
  "deployedLinkReferences": {}
}