{
  "_format": "hh-sol-artifact-1",
  "contractName": "PetsNFT",
  "sourceName": "contracts/PetsNFT.sol",
  "abi": [
    {
      "inputs": [
        {
          "internalType": "string",
          "name": "baseURI",
          "type": "string"
        },
        {
          "internalType": "string",
          "name": "name",
          "type": "string"
        },
        {
          "internalType": "string",
          "name": "symbol",
          "type": "string"
        },
        {
          "internalType": "string[]",
          "name": "NFTs",
          "type": "string[]"
        }
      ],
      "stateMutability": "nonpayable",
      "type": "constructor"
    },
    {
      "anonymous": false,
      "inputs": [
        {
          "indexed": true,
          "internalType": "address",
          "name": "owner",
          "type": "address"
        },
        {
          "indexed": true,
          "internalType": "address",
          "name": "approved",
          "type": "address"
        },
        {
          "indexed": true,
          "internalType": "uint256",
          "name": "tokenId",
          "type": "uint256"
        }
      ],
      "name": "Approval",
      "type": "event"
    },
    {
      "anonymous": false,
      "inputs": [
        {
          "indexed": true,
          "internalType": "address",
          "name": "owner",
          "type": "address"
        },
        {
          "indexed": true,
          "internalType": "address",
          "name": "operator",
          "type": "address"
        },
        {
          "indexed": false,
          "internalType": "bool",
          "name": "approved",
          "type": "bool"
        }
      ],
      "name": "ApprovalForAll",
      "type": "event"
    },
    {
      "anonymous": false,
      "inputs": [
        {
          "indexed": false,
          "internalType": "address",
          "name": "owner",
          "type": "address"
        },
        {
          "indexed": false,
          "internalType": "uint256",
          "name": "tokenId",
          "type": "uint256"
        }
      ],
      "name": "NewTokenMinted",
      "type": "event"
    },
    {
      "anonymous": false,
      "inputs": [
        {
          "indexed": true,
          "internalType": "address",
          "name": "from",
          "type": "address"
        },
        {
          "indexed": true,
          "internalType": "address",
          "name": "to",
          "type": "address"
        },
        {
          "indexed": true,
          "internalType": "uint256",
          "name": "tokenId",
          "type": "uint256"
        }
      ],
      "name": "Transfer",
      "type": "event"
    },
    {
      "inputs": [
        {
          "internalType": "address",
          "name": "to",
          "type": "address"
        },
        {
          "internalType": "uint256",
          "name": "tokenId",
          "type": "uint256"
        }
      ],
      "name": "approve",
      "outputs": [],
      "stateMutability": "nonpayable",
      "type": "function"
    },
    {
      "inputs": [
        {
          "internalType": "address",
          "name": "owner",
          "type": "address"
        }
      ],
      "name": "balanceOf",
      "outputs": [
        {
          "internalType": "uint256",
          "name": "",
          "type": "uint256"
        }
      ],
      "stateMutability": "view",
      "type": "function"
    },
    {
      "inputs": [
        {
          "internalType": "uint256",
          "name": "tokenId",
          "type": "uint256"
        }
      ],
      "name": "getApproved",
      "outputs": [
        {
          "internalType": "address",
          "name": "",
          "type": "address"
        }
      ],
      "stateMutability": "view",
      "type": "function"
    },
    {
      "inputs": [],
      "name": "getAvailableNFTs",
      "outputs": [
        {
          "internalType": "string[]",
          "name": "",
          "type": "string[]"
        }
      ],
      "stateMutability": "view",
      "type": "function"
    },
    {
      "inputs": [],
      "name": "getNumberOfAvailableNFTs",
      "outputs": [
        {
          "internalType": "uint256",
          "name": "",
          "type": "uint256"
        }
      ],
      "stateMutability": "view",
      "type": "function"
    },
    {
      "inputs": [
        {
          "internalType": "address",
          "name": "owner",
          "type": "address"
        }
      ],
      "name": "getOwnersTokens",
      "outputs": [
        {
          "internalType": "uint256[]",
          "name": "",
          "type": "uint256[]"
        }
      ],
      "stateMutability": "view",
      "type": "function"
    },
    {
      "inputs": [
        {
          "internalType": "address",
          "name": "owner",
          "type": "address"
        },
        {
          "internalType": "address",
          "name": "operator",
          "type": "address"
        }
      ],
      "name": "isApprovedForAll",
      "outputs": [
        {
          "internalType": "bool",
          "name": "",
          "type": "bool"
        }
      ],
      "stateMutability": "view",
      "type": "function"
    },
    {
      "inputs": [],
      "name": "mintNFT",
      "outputs": [],
      "stateMutability": "nonpayable",
      "type": "function"
    },
    {
      "inputs": [],
      "name": "name",
      "outputs": [
        {
          "internalType": "string",
          "name": "",
          "type": "string"
        }
      ],
      "stateMutability": "view",
      "type": "function"
    },
    {
      "inputs": [
        {
          "internalType": "uint256",
          "name": "tokenId",
          "type": "uint256"
        }
      ],
      "name": "ownerOf",
      "outputs": [
        {
          "internalType": "address",
          "name": "",
          "type": "address"
        }
      ],
      "stateMutability": "view",
      "type": "function"
    },
    {
      "inputs": [
        {
          "internalType": "address",
          "name": "from",
          "type": "address"
        },
        {
          "internalType": "address",
          "name": "to",
          "type": "address"
        },
        {
          "internalType": "uint256",
          "name": "tokenId",
          "type": "uint256"
        }
      ],
      "name": "safeTransferFrom",
      "outputs": [],
      "stateMutability": "nonpayable",
      "type": "function"
    },
    {
      "inputs": [
        {
          "internalType": "address",
          "name": "from",
          "type": "address"
        },
        {
          "internalType": "address",
          "name": "to",
          "type": "address"
        },
        {
          "internalType": "uint256",
          "name": "tokenId",
          "type": "uint256"
        },
        {
          "internalType": "bytes",
          "name": "_data",
          "type": "bytes"
        }
      ],
      "name": "safeTransferFrom",
      "outputs": [],
      "stateMutability": "nonpayable",
      "type": "function"
    },
    {
      "inputs": [
        {
          "internalType": "address",
          "name": "operator",
          "type": "address"
        },
        {
          "internalType": "bool",
          "name": "approved",
          "type": "bool"
        }
      ],
      "name": "setApprovalForAll",
      "outputs": [],
      "stateMutability": "nonpayable",
      "type": "function"
    },
    {
      "inputs": [
        {
          "internalType": "bytes4",
          "name": "interfaceId",
          "type": "bytes4"
        }
      ],
      "name": "supportsInterface",
      "outputs": [
        {
          "internalType": "bool",
          "name": "",
          "type": "bool"
        }
      ],
      "stateMutability": "view",
      "type": "function"
    },
    {
      "inputs": [],
      "name": "symbol",
      "outputs": [
        {
          "internalType": "string",
          "name": "",
          "type": "string"
        }
      ],
      "stateMutability": "view",
      "type": "function"
    },
    {
      "inputs": [
        {
          "internalType": "uint256",
          "name": "tokenId",
          "type": "uint256"
        }
      ],
      "name": "tokenURI",
      "outputs": [
        {
          "internalType": "string",
          "name": "",
          "type": "string"
        }
      ],
      "stateMutability": "view",
      "type": "function"
    },
    {
      "inputs": [
        {
          "internalType": "address",
          "name": "from",
          "type": "address"
        },
        {
          "internalType": "address",
          "name": "to",
          "type": "address"
        },
        {
          "internalType": "uint256",
          "name": "tokenId",
          "type": "uint256"
        }
      ],
      "name": "transferFrom",
      "outputs": [],
      "stateMutability": "nonpayable",
      "type": "function"
    }
  ],
  "bytecode": "0x60806040523480156200001157600080fd5b5060405162003aee38038062003aee83398181016040528101906200003791906200033a565b8282816000908051906020019062000051929190620000b1565b5080600190805190602001906200006a929190620000b1565b505050836008908051906020019062000085929190620000b1565b5080600b90805190602001906200009e92919062000142565b50805160098190555050505050620005a9565b828054620000bf90620004ce565b90600052602060002090601f016020900481019282620000e357600085556200012f565b82601f10620000fe57805160ff19168380011785556200012f565b828001600101855582156200012f579182015b828111156200012e57825182559160200191906001019062000111565b5b5090506200013e9190620001a9565b5090565b82805482825590600052602060002090810192821562000196579160200282015b828111156200019557825182908051906020019062000184929190620000b1565b509160200191906001019062000163565b5b509050620001a59190620001c8565b5090565b5b80821115620001c4576000816000905550600101620001aa565b5090565b5b80821115620001ec5760008181620001e29190620001f0565b50600101620001c9565b5090565b508054620001fe90620004ce565b6000825580601f1062000212575062000233565b601f016020900490600052602060002090810190620002329190620001a9565b5b50565b60006200024d620002478462000433565b6200040a565b9050808382526020820190508260005b858110156200029157815185016200027688826200030d565b8452602084019350602083019250506001810190506200025d565b5050509392505050565b6000620002b2620002ac8462000462565b6200040a565b905082815260208101848484011115620002cb57600080fd5b620002d884828562000498565b509392505050565b600082601f830112620002f257600080fd5b81516200030484826020860162000236565b91505092915050565b600082601f8301126200031f57600080fd5b8151620003318482602086016200029b565b91505092915050565b600080600080608085870312156200035157600080fd5b600085015167ffffffffffffffff8111156200036c57600080fd5b6200037a878288016200030d565b945050602085015167ffffffffffffffff8111156200039857600080fd5b620003a6878288016200030d565b935050604085015167ffffffffffffffff811115620003c457600080fd5b620003d2878288016200030d565b925050606085015167ffffffffffffffff811115620003f057600080fd5b620003fe87828801620002e0565b91505092959194509250565b60006200041662000429565b905062000424828262000504565b919050565b6000604051905090565b600067ffffffffffffffff82111562000451576200045062000569565b5b602082029050602081019050919050565b600067ffffffffffffffff82111562000480576200047f62000569565b5b6200048b8262000598565b9050602081019050919050565b60005b83811015620004b85780820151818401526020810190506200049b565b83811115620004c8576000848401525b50505050565b60006002820490506001821680620004e757607f821691505b60208210811415620004fe57620004fd6200053a565b5b50919050565b6200050f8262000598565b810181811067ffffffffffffffff8211171562000531576200053062000569565b5b80604052505050565b7f4e487b7100000000000000000000000000000000000000000000000000000000600052602260045260246000fd5b7f4e487b7100000000000000000000000000000000000000000000000000000000600052604160045260246000fd5b6000601f19601f8301169050919050565b61353580620005b96000396000f3fe608060405234801561001057600080fd5b506004361061010b5760003560e01c80636352211e116100a2578063a22cb46511610071578063a22cb465146102a6578063b88d4fde146102c2578063c87b56dd146102de578063daa9855c1461030e578063e985e9c51461033e5761010b565b80636352211e1461020a57806370a082311461023a5780638b8ae32b1461026a57806395d89b41146102885761010b565b806314f710fe116100de57806314f710fe146101aa57806323b872dd146101b457806332702c95146101d057806342842e0e146101ee5761010b565b806301ffc9a71461011057806306fdde0314610140578063081812fc1461015e578063095ea7b31461018e575b600080fd5b61012a6004803603810190610125919061219a565b61036e565b60405161013791906128d4565b60405180910390f35b610148610450565b60405161015591906128ef565b60405180910390f35b610178600480360381019061017391906121ec565b6104e2565b6040516101859190612800565b60405180910390f35b6101a860048036038101906101a3919061215e565b610567565b005b6101b261067f565b005b6101ce60048036038101906101c99190612058565b610839565b005b6101d8610899565b6040516101e59190612890565b60405180910390f35b61020860048036038101906102039190612058565b610972565b005b610224600480360381019061021f91906121ec565b610992565b6040516102319190612800565b60405180910390f35b610254600480360381019061024f9190611ff3565b610a44565b6040516102619190612b31565b60405180910390f35b610272610afc565b60405161027f9190612b31565b60405180910390f35b610290610b09565b60405161029d91906128ef565b60405180910390f35b6102c060048036038101906102bb9190612122565b610b9b565b005b6102dc60048036038101906102d791906120a7565b610bb1565b005b6102f860048036038101906102f391906121ec565b610c13565b60405161030591906128ef565b60405180910390f35b61032860048036038101906103239190611ff3565b610d65565b60405161033591906128b2565b60405180910390f35b6103586004803603810190610353919061201c565b610dfc565b60405161036591906128d4565b60405180910390f35b60007f80ac58cd000000000000000000000000000000000000000000000000000000007bffffffffffffffffffffffffffffffffffffffffffffffffffffffff1916827bffffffffffffffffffffffffffffffffffffffffffffffffffffffff1916148061043957507f5b5e139f000000000000000000000000000000000000000000000000000000007bffffffffffffffffffffffffffffffffffffffffffffffffffffffff1916827bffffffffffffffffffffffffffffffffffffffffffffffffffffffff1916145b80610449575061044882610e90565b5b9050919050565b60606000805461045f90612dee565b80601f016020809104026020016040519081016040528092919081815260200182805461048b90612dee565b80156104d85780601f106104ad576101008083540402835291602001916104d8565b820191906000526020600020905b8154815290600101906020018083116104bb57829003601f168201915b5050505050905090565b60006104ed82610efa565b61052c576040517f08c379a000000000000000000000000000000000000000000000000000000000815260040161052390612a91565b60405180910390fd5b6004600083815260200190815260200160002060009054906101000a900473ffffffffffffffffffffffffffffffffffffffff169050919050565b600061057282610992565b90508073ffffffffffffffffffffffffffffffffffffffff168373ffffffffffffffffffffffffffffffffffffffff1614156105e3576040517f08c379a00000000000000000000000000000000000000000000000000000000081526004016105da90612ad1565b60405180910390fd5b8073ffffffffffffffffffffffffffffffffffffffff16610602610f66565b73ffffffffffffffffffffffffffffffffffffffff16148061063157506106308161062b610f66565b610dfc565b5b610670576040517f08c379a0000000000000000000000000000000000000000000000000000000008152600401610667906129d1565b60405180910390fd5b61067a8383610f6e565b505050565b600061068b6007611027565b905060095481106106d1576040517f08c379a00000000000000000000000000000000000000000000000000000000081526004016106c890612b11565b60405180910390fd5b60004433426040516020016106e8939291906127c3565b6040516020818303038152906040529050600061070482611035565b90506000600b8281548110610742577f4e487b7100000000000000000000000000000000000000000000000000000000600052603260045260246000fd5b9060005260206000200160405160200161075c919061278a565b6040516020818303038152906040529050610777338561107d565b6107808261109b565b61078a84826111a5565b6107946007611219565b600c60003373ffffffffffffffffffffffffffffffffffffffff1673ffffffffffffffffffffffffffffffffffffffff1681526020019081526020016000208490806001815401808255809150506001900390600052602060002001600090919091909150557f5dd00ffcb6618cfa61061cff0e31d2e5871199cfca7a136a4ada2dafa91ab941338560405161082b929190612867565b60405180910390a150505050565b61084a610844610f66565b8261122f565b610889576040517f08c379a000000000000000000000000000000000000000000000000000000000815260040161088090612af1565b60405180910390fd5b61089483838361130d565b505050565b6060600b805480602002602001604051908101604052809291908181526020016000905b828210156109695783829060005260206000200180546108dc90612dee565b80601f016020809104026020016040519081016040528092919081815260200182805461090890612dee565b80156109555780601f1061092a57610100808354040283529160200191610955565b820191906000526020600020905b81548152906001019060200180831161093857829003601f168201915b5050505050815260200190600101906108bd565b50505050905090565b61098d83838360405180602001604052806000815250610bb1565b505050565b6000806002600084815260200190815260200160002060009054906101000a900473ffffffffffffffffffffffffffffffffffffffff169050600073ffffffffffffffffffffffffffffffffffffffff168173ffffffffffffffffffffffffffffffffffffffff161415610a3b576040517f08c379a0000000000000000000000000000000000000000000000000000000008152600401610a3290612a11565b60405180910390fd5b80915050919050565b60008073ffffffffffffffffffffffffffffffffffffffff168273ffffffffffffffffffffffffffffffffffffffff161415610ab5576040517f08c379a0000000000000000000000000000000000000000000000000000000008152600401610aac906129f1565b60405180910390fd5b600360008373ffffffffffffffffffffffffffffffffffffffff1673ffffffffffffffffffffffffffffffffffffffff168152602001908152602001600020549050919050565b6000600b80549050905090565b606060018054610b1890612dee565b80601f0160208091040260200160405190810160405280929190818152602001828054610b4490612dee565b8015610b915780601f10610b6657610100808354040283529160200191610b91565b820191906000526020600020905b815481529060010190602001808311610b7457829003601f168201915b5050505050905090565b610bad610ba6610f66565b8383611574565b5050565b610bc2610bbc610f66565b8361122f565b610c01576040517f08c379a0000000000000000000000000000000000000000000000000000000008152600401610bf890612af1565b60405180910390fd5b610c0d848484846116e1565b50505050565b6060610c1e82610efa565b610c5d576040517f08c379a0000000000000000000000000000000000000000000000000000000008152600401610c5490612a71565b60405180910390fd5b6000600660008481526020019081526020016000208054610c7d90612dee565b80601f0160208091040260200160405190810160405280929190818152602001828054610ca990612dee565b8015610cf65780601f10610ccb57610100808354040283529160200191610cf6565b820191906000526020600020905b815481529060010190602001808311610cd957829003601f168201915b505050505090506000610d0761173d565b9050600081511415610d1d578192505050610d60565b600082511115610d52578082604051602001610d3a929190612766565b60405160208183030381529060405292505050610d60565b610d5b84611765565b925050505b919050565b6060600c60008373ffffffffffffffffffffffffffffffffffffffff1673ffffffffffffffffffffffffffffffffffffffff168152602001908152602001600020805480602002602001604051908101604052809291908181526020018280548015610df057602002820191906000526020600020905b815481526020019060010190808311610ddc575b50505050509050919050565b6000600560008473ffffffffffffffffffffffffffffffffffffffff1673ffffffffffffffffffffffffffffffffffffffff16815260200190815260200160002060008373ffffffffffffffffffffffffffffffffffffffff1673ffffffffffffffffffffffffffffffffffffffff16815260200190815260200160002060009054906101000a900460ff16905092915050565b60007f01ffc9a7000000000000000000000000000000000000000000000000000000007bffffffffffffffffffffffffffffffffffffffffffffffffffffffff1916827bffffffffffffffffffffffffffffffffffffffffffffffffffffffff1916149050919050565b60008073ffffffffffffffffffffffffffffffffffffffff166002600084815260200190815260200160002060009054906101000a900473ffffffffffffffffffffffffffffffffffffffff1673ffffffffffffffffffffffffffffffffffffffff1614159050919050565b600033905090565b816004600083815260200190815260200160002060006101000a81548173ffffffffffffffffffffffffffffffffffffffff021916908373ffffffffffffffffffffffffffffffffffffffff160217905550808273ffffffffffffffffffffffffffffffffffffffff16610fe183610992565b73ffffffffffffffffffffffffffffffffffffffff167f8c5be1e5ebec7d5bd14f71427d1e84f3dd0314c0f7b2291e5b200ac8c7c3b92560405160405180910390a45050565b600081600001549050919050565b60008082604051602001611049919061274f565b6040516020818303038152906040528051906020012060001c9050600b80549050816110759190612ec8565b915050919050565b61109782826040518060200160405280600081525061180c565b5050565b600b6001600b805490506110af9190612d04565b815481106110e6577f4e487b7100000000000000000000000000000000000000000000000000000000600052603260045260246000fd5b90600052602060002001600b828154811061112a577f4e487b7100000000000000000000000000000000000000000000000000000000600052603260045260246000fd5b9060005260206000200190805461114090612dee565b61114b929190611db2565b50600b805480611184577f4e487b7100000000000000000000000000000000000000000000000000000000600052603160045260246000fd5b6001900381819060005260206000200160006111a09190611e3f565b905550565b6111ae82610efa565b6111ed576040517f08c379a00000000000000000000000000000000000000000000000000000000081526004016111e490612a31565b60405180910390fd5b80600660008481526020019081526020016000209080519060200190611214929190611e7f565b505050565b6001816000016000828254019250508190555050565b600061123a82610efa565b611279576040517f08c379a0000000000000000000000000000000000000000000000000000000008152600401611270906129b1565b60405180910390fd5b600061128483610992565b90508073ffffffffffffffffffffffffffffffffffffffff168473ffffffffffffffffffffffffffffffffffffffff1614806112f357508373ffffffffffffffffffffffffffffffffffffffff166112db846104e2565b73ffffffffffffffffffffffffffffffffffffffff16145b8061130457506113038185610dfc565b5b91505092915050565b8273ffffffffffffffffffffffffffffffffffffffff1661132d82610992565b73ffffffffffffffffffffffffffffffffffffffff1614611383576040517f08c379a000000000000000000000000000000000000000000000000000000000815260040161137a90612931565b60405180910390fd5b600073ffffffffffffffffffffffffffffffffffffffff168273ffffffffffffffffffffffffffffffffffffffff1614156113f3576040517f08c379a00000000000000000000000000000000000000000000000000000000081526004016113ea90612971565b60405180910390fd5b6113fe838383611867565b611409600082610f6e565b6001600360008573ffffffffffffffffffffffffffffffffffffffff1673ffffffffffffffffffffffffffffffffffffffff16815260200190815260200160002060008282546114599190612d04565b925050819055506001600360008473ffffffffffffffffffffffffffffffffffffffff1673ffffffffffffffffffffffffffffffffffffffff16815260200190815260200160002060008282546114b09190612c7d565b92505081905550816002600083815260200190815260200160002060006101000a81548173ffffffffffffffffffffffffffffffffffffffff021916908373ffffffffffffffffffffffffffffffffffffffff160217905550808273ffffffffffffffffffffffffffffffffffffffff168473ffffffffffffffffffffffffffffffffffffffff167fddf252ad1be2c89b69c2b068fc378daa952ba7f163c4a11628f55a4df523b3ef60405160405180910390a461156f83838361186c565b505050565b8173ffffffffffffffffffffffffffffffffffffffff168373ffffffffffffffffffffffffffffffffffffffff1614156115e3576040517f08c379a00000000000000000000000000000000000000000000000000000000081526004016115da90612991565b60405180910390fd5b80600560008573ffffffffffffffffffffffffffffffffffffffff1673ffffffffffffffffffffffffffffffffffffffff16815260200190815260200160002060008473ffffffffffffffffffffffffffffffffffffffff1673ffffffffffffffffffffffffffffffffffffffff16815260200190815260200160002060006101000a81548160ff0219169083151502179055508173ffffffffffffffffffffffffffffffffffffffff168373ffffffffffffffffffffffffffffffffffffffff167f17307eab39ab6107e8899845ad3d59bd9653f200f220920489ca2b5937696c31836040516116d491906128d4565b60405180910390a3505050565b6116ec84848461130d565b6116f884848484611871565b611737576040517f08c379a000000000000000000000000000000000000000000000000000000000815260040161172e90612911565b60405180910390fd5b50505050565b6060600860405160200161175191906127a1565b604051602081830303815290604052905090565b606061177082610efa565b6117af576040517f08c379a00000000000000000000000000000000000000000000000000000000081526004016117a690612ab1565b60405180910390fd5b60006117b961173d565b905060008151116117d95760405180602001604052806000815250611804565b806117e384611a08565b6040516020016117f4929190612766565b6040516020818303038152906040525b915050919050565b6118168383611bb5565b6118236000848484611871565b611862576040517f08c379a000000000000000000000000000000000000000000000000000000000815260040161185990612911565b60405180910390fd5b505050565b505050565b505050565b60006118928473ffffffffffffffffffffffffffffffffffffffff16611d8f565b156119fb578373ffffffffffffffffffffffffffffffffffffffff1663150b7a026118bb610f66565b8786866040518563ffffffff1660e01b81526004016118dd949392919061281b565b602060405180830381600087803b1580156118f757600080fd5b505af192505050801561192857506040513d601f19601f8201168201806040525081019061192591906121c3565b60015b6119ab573d8060008114611958576040519150601f19603f3d011682016040523d82523d6000602084013e61195d565b606091505b506000815114156119a3576040517f08c379a000000000000000000000000000000000000000000000000000000000815260040161199a90612911565b60405180910390fd5b805181602001fd5b63150b7a0260e01b7bffffffffffffffffffffffffffffffffffffffffffffffffffffffff1916817bffffffffffffffffffffffffffffffffffffffffffffffffffffffff191614915050611a00565b600190505b949350505050565b60606000821415611a50576040518060400160405280600181526020017f30000000000000000000000000000000000000000000000000000000000000008152509050611bb0565b600082905060005b60008214611a82578080611a6b90612e51565b915050600a82611a7b9190612cd3565b9150611a58565b60008167ffffffffffffffff811115611ac4577f4e487b7100000000000000000000000000000000000000000000000000000000600052604160045260246000fd5b6040519080825280601f01601f191660200182016040528015611af65781602001600182028036833780820191505090505b5090505b60008514611ba957600182611b0f9190612d04565b9150600a85611b1e9190612ec8565b6030611b2a9190612c7d565b60f81b818381518110611b66577f4e487b7100000000000000000000000000000000000000000000000000000000600052603260045260246000fd5b60200101907effffffffffffffffffffffffffffffffffffffffffffffffffffffffffffff1916908160001a905350600a85611ba29190612cd3565b9450611afa565b8093505050505b919050565b600073ffffffffffffffffffffffffffffffffffffffff168273ffffffffffffffffffffffffffffffffffffffff161415611c25576040517f08c379a0000000000000000000000000000000000000000000000000000000008152600401611c1c90612a51565b60405180910390fd5b611c2e81610efa565b15611c6e576040517f08c379a0000000000000000000000000000000000000000000000000000000008152600401611c6590612951565b60405180910390fd5b611c7a60008383611867565b6001600360008473ffffffffffffffffffffffffffffffffffffffff1673ffffffffffffffffffffffffffffffffffffffff1681526020019081526020016000206000828254611cca9190612c7d565b92505081905550816002600083815260200190815260200160002060006101000a81548173ffffffffffffffffffffffffffffffffffffffff021916908373ffffffffffffffffffffffffffffffffffffffff160217905550808273ffffffffffffffffffffffffffffffffffffffff16600073ffffffffffffffffffffffffffffffffffffffff167fddf252ad1be2c89b69c2b068fc378daa952ba7f163c4a11628f55a4df523b3ef60405160405180910390a4611d8b6000838361186c565b5050565b6000808273ffffffffffffffffffffffffffffffffffffffff163b119050919050565b828054611dbe90612dee565b90600052602060002090601f016020900481019282611de05760008555611e2e565b82601f10611df15780548555611e2e565b82800160010185558215611e2e57600052602060002091601f016020900482015b82811115611e2d578254825591600101919060010190611e12565b5b509050611e3b9190611f05565b5090565b508054611e4b90612dee565b6000825580601f10611e5d5750611e7c565b601f016020900490600052602060002090810190611e7b9190611f05565b5b50565b828054611e8b90612dee565b90600052602060002090601f016020900481019282611ead5760008555611ef4565b82601f10611ec657805160ff1916838001178555611ef4565b82800160010185558215611ef4579182015b82811115611ef3578251825591602001919060010190611ed8565b5b509050611f019190611f05565b5090565b5b80821115611f1e576000816000905550600101611f06565b5090565b6000611f35611f3084612b71565b612b4c565b905082815260208101848484011115611f4d57600080fd5b611f58848285612dac565b509392505050565b600081359050611f6f816134a3565b92915050565b600081359050611f84816134ba565b92915050565b600081359050611f99816134d1565b92915050565b600081519050611fae816134d1565b92915050565b600082601f830112611fc557600080fd5b8135611fd5848260208601611f22565b91505092915050565b600081359050611fed816134e8565b92915050565b60006020828403121561200557600080fd5b600061201384828501611f60565b91505092915050565b6000806040838503121561202f57600080fd5b600061203d85828601611f60565b925050602061204e85828601611f60565b9150509250929050565b60008060006060848603121561206d57600080fd5b600061207b86828701611f60565b935050602061208c86828701611f60565b925050604061209d86828701611fde565b9150509250925092565b600080600080608085870312156120bd57600080fd5b60006120cb87828801611f60565b94505060206120dc87828801611f60565b93505060406120ed87828801611fde565b925050606085013567ffffffffffffffff81111561210a57600080fd5b61211687828801611fb4565b91505092959194509250565b6000806040838503121561213557600080fd5b600061214385828601611f60565b925050602061215485828601611f75565b9150509250929050565b6000806040838503121561217157600080fd5b600061217f85828601611f60565b925050602061219085828601611fde565b9150509250929050565b6000602082840312156121ac57600080fd5b60006121ba84828501611f8a565b91505092915050565b6000602082840312156121d557600080fd5b60006121e384828501611f9f565b91505092915050565b6000602082840312156121fe57600080fd5b600061220c84828501611fde565b91505092915050565b60006122218383612382565b905092915050565b6000612235838361271a565b60208301905092915050565b61224a81612d38565b82525050565b61226161225c82612d38565b612e9a565b82525050565b600061227282612bd7565b61227c8185612c1d565b93508360208202850161228e85612ba2565b8060005b858110156122ca57848403895281516122ab8582612215565b94506122b683612c03565b925060208a01995050600181019050612292565b50829750879550505050505092915050565b60006122e782612be2565b6122f18185612c2e565b93506122fc83612bb2565b8060005b8381101561232d5781516123148882612229565b975061231f83612c10565b925050600181019050612300565b5085935050505092915050565b61234381612d4a565b82525050565b600061235482612bed565b61235e8185612c3f565b935061236e818560208601612dbb565b61237781612fb5565b840191505092915050565b600061238d82612bf8565b6123978185612c50565b93506123a7818560208601612dbb565b6123b081612fb5565b840191505092915050565b60006123c682612bf8565b6123d08185612c61565b93506123e0818560208601612dbb565b6123e981612fb5565b840191505092915050565b60006123ff82612bf8565b6124098185612c72565b9350612419818560208601612dbb565b80840191505092915050565b6000815461243281612dee565b61243c8186612c72565b9450600182166000811461245757600181146124685761249b565b60ff1983168652818601935061249b565b61247185612bc2565b60005b8381101561249357815481890152600182019150602081019050612474565b838801955050505b50505092915050565b60006124b1603283612c61565b91506124bc82612fd3565b604082019050919050565b60006124d4602583612c61565b91506124df82613022565b604082019050919050565b60006124f7601c83612c61565b915061250282613071565b602082019050919050565b600061251a602483612c61565b91506125258261309a565b604082019050919050565b600061253d601983612c61565b9150612548826130e9565b602082019050919050565b6000612560602c83612c61565b915061256b82613112565b604082019050919050565b6000612583603883612c61565b915061258e82613161565b604082019050919050565b60006125a6602a83612c61565b91506125b1826131b0565b604082019050919050565b60006125c9602983612c61565b91506125d4826131ff565b604082019050919050565b60006125ec602e83612c61565b91506125f78261324e565b604082019050919050565b600061260f602083612c61565b915061261a8261329d565b602082019050919050565b6000612632603183612c61565b915061263d826132c6565b604082019050919050565b6000612655602c83612c61565b915061266082613315565b604082019050919050565b6000612678602f83612c61565b915061268382613364565b604082019050919050565b600061269b602183612c61565b91506126a6826133b3565b604082019050919050565b60006126be603183612c61565b91506126c982613402565b604082019050919050565b60006126e1601783612c61565b91506126ec82613451565b602082019050919050565b6000612704600183612c72565b915061270f8261347a565b600182019050919050565b61272381612da2565b82525050565b61273281612da2565b82525050565b61274961274482612da2565b612ebe565b82525050565b600061275b82846123f4565b915081905092915050565b600061277282856123f4565b915061277e82846123f4565b91508190509392505050565b60006127968284612425565b915081905092915050565b60006127ad8284612425565b91506127b8826126f7565b915081905092915050565b60006127cf8286612738565b6020820191506127df8285612250565b6014820191506127ef8284612738565b602082019150819050949350505050565b60006020820190506128156000830184612241565b92915050565b60006080820190506128306000830187612241565b61283d6020830186612241565b61284a6040830185612729565b818103606083015261285c8184612349565b905095945050505050565b600060408201905061287c6000830185612241565b6128896020830184612729565b9392505050565b600060208201905081810360008301526128aa8184612267565b905092915050565b600060208201905081810360008301526128cc81846122dc565b905092915050565b60006020820190506128e9600083018461233a565b92915050565b6000602082019050818103600083015261290981846123bb565b905092915050565b6000602082019050818103600083015261292a816124a4565b9050919050565b6000602082019050818103600083015261294a816124c7565b9050919050565b6000602082019050818103600083015261296a816124ea565b9050919050565b6000602082019050818103600083015261298a8161250d565b9050919050565b600060208201905081810360008301526129aa81612530565b9050919050565b600060208201905081810360008301526129ca81612553565b9050919050565b600060208201905081810360008301526129ea81612576565b9050919050565b60006020820190508181036000830152612a0a81612599565b9050919050565b60006020820190508181036000830152612a2a816125bc565b9050919050565b60006020820190508181036000830152612a4a816125df565b9050919050565b60006020820190508181036000830152612a6a81612602565b9050919050565b60006020820190508181036000830152612a8a81612625565b9050919050565b60006020820190508181036000830152612aaa81612648565b9050919050565b60006020820190508181036000830152612aca8161266b565b9050919050565b60006020820190508181036000830152612aea8161268e565b9050919050565b60006020820190508181036000830152612b0a816126b1565b9050919050565b60006020820190508181036000830152612b2a816126d4565b9050919050565b6000602082019050612b466000830184612729565b92915050565b6000612b56612b67565b9050612b628282612e20565b919050565b6000604051905090565b600067ffffffffffffffff821115612b8c57612b8b612f86565b5b612b9582612fb5565b9050602081019050919050565b6000819050602082019050919050565b6000819050602082019050919050565b60008190508160005260206000209050919050565b600081519050919050565b600081519050919050565b600081519050919050565b600081519050919050565b6000602082019050919050565b6000602082019050919050565b600082825260208201905092915050565b600082825260208201905092915050565b600082825260208201905092915050565b600082825260208201905092915050565b600082825260208201905092915050565b600081905092915050565b6000612c8882612da2565b9150612c9383612da2565b9250827fffffffffffffffffffffffffffffffffffffffffffffffffffffffffffffffff03821115612cc857612cc7612ef9565b5b828201905092915050565b6000612cde82612da2565b9150612ce983612da2565b925082612cf957612cf8612f28565b5b828204905092915050565b6000612d0f82612da2565b9150612d1a83612da2565b925082821015612d2d57612d2c612ef9565b5b828203905092915050565b6000612d4382612d82565b9050919050565b60008115159050919050565b60007fffffffff0000000000000000000000000000000000000000000000000000000082169050919050565b600073ffffffffffffffffffffffffffffffffffffffff82169050919050565b6000819050919050565b82818337600083830152505050565b60005b83811015612dd9578082015181840152602081019050612dbe565b83811115612de8576000848401525b50505050565b60006002820490506001821680612e0657607f821691505b60208210811415612e1a57612e19612f57565b5b50919050565b612e2982612fb5565b810181811067ffffffffffffffff82111715612e4857612e47612f86565b5b80604052505050565b6000612e5c82612da2565b91507fffffffffffffffffffffffffffffffffffffffffffffffffffffffffffffffff821415612e8f57612e8e612ef9565b5b600182019050919050565b6000612ea582612eac565b9050919050565b6000612eb782612fc6565b9050919050565b6000819050919050565b6000612ed382612da2565b9150612ede83612da2565b925082612eee57612eed612f28565b5b828206905092915050565b7f4e487b7100000000000000000000000000000000000000000000000000000000600052601160045260246000fd5b7f4e487b7100000000000000000000000000000000000000000000000000000000600052601260045260246000fd5b7f4e487b7100000000000000000000000000000000000000000000000000000000600052602260045260246000fd5b7f4e487b7100000000000000000000000000000000000000000000000000000000600052604160045260246000fd5b6000601f19601f8301169050919050565b60008160601b9050919050565b7f4552433732313a207472616e7366657220746f206e6f6e20455243373231526560008201527f63656976657220696d706c656d656e7465720000000000000000000000000000602082015250565b7f4552433732313a207472616e736665722066726f6d20696e636f72726563742060008201527f6f776e6572000000000000000000000000000000000000000000000000000000602082015250565b7f4552433732313a20746f6b656e20616c7265616479206d696e74656400000000600082015250565b7f4552433732313a207472616e7366657220746f20746865207a65726f2061646460008201527f7265737300000000000000000000000000000000000000000000000000000000602082015250565b7f4552433732313a20617070726f766520746f2063616c6c657200000000000000600082015250565b7f4552433732313a206f70657261746f7220717565727920666f72206e6f6e657860008201527f697374656e7420746f6b656e0000000000000000000000000000000000000000602082015250565b7f4552433732313a20617070726f76652063616c6c6572206973206e6f74206f7760008201527f6e6572206e6f7220617070726f76656420666f7220616c6c0000000000000000602082015250565b7f4552433732313a2062616c616e636520717565727920666f7220746865207a6560008201527f726f206164647265737300000000000000000000000000000000000000000000602082015250565b7f4552433732313a206f776e657220717565727920666f72206e6f6e657869737460008201527f656e7420746f6b656e0000000000000000000000000000000000000000000000602082015250565b7f45524337323155524953746f726167653a2055524920736574206f66206e6f6e60008201527f6578697374656e7420746f6b656e000000000000000000000000000000000000602082015250565b7f4552433732313a206d696e7420746f20746865207a65726f2061646472657373600082015250565b7f45524337323155524953746f726167653a2055524920717565727920666f722060008201527f6e6f6e6578697374656e7420746f6b656e000000000000000000000000000000602082015250565b7f4552433732313a20617070726f76656420717565727920666f72206e6f6e657860008201527f697374656e7420746f6b656e0000000000000000000000000000000000000000602082015250565b7f4552433732314d657461646174613a2055524920717565727920666f72206e6f60008201527f6e6578697374656e7420746f6b656e0000000000000000000000000000000000602082015250565b7f4552433732313a20617070726f76616c20746f2063757272656e74206f776e6560008201527f7200000000000000000000000000000000000000000000000000000000000000602082015250565b7f4552433732313a207472616e736665722063616c6c6572206973206e6f74206f60008201527f776e6572206e6f7220617070726f766564000000000000000000000000000000602082015250565b7f576f756c6420657863656564206d617820737570706c79000000000000000000600082015250565b7f2f00000000000000000000000000000000000000000000000000000000000000600082015250565b6134ac81612d38565b81146134b757600080fd5b50565b6134c381612d4a565b81146134ce57600080fd5b50565b6134da81612d56565b81146134e557600080fd5b50565b6134f181612da2565b81146134fc57600080fd5b5056fea264697066735822122012841b8002c05ef4fb51de86a741e58d3d4c2b1ea12c0262ac8d8deb6440a40464736f6c63430008010033",
  "linkReferences": {},
  "deployedLinkReferences": {}
}