{
  "_format": "hh-sol-artifact-1",
  "contractName": "PetsNFT",
  "sourceName": "contracts/PetsNFT.sol",
  "abi": [
    {
      "inputs": [
        {
          "internalType": "string",
          "name": "baseURI",
          "type": "string"
        },
        {
          "internalType": "string",
          "name": "name",
          "type": "string"
        },
        {
          "internalType": "string",
          "name": "symbol",
          "type": "string"
        },
        {
          "internalType": "uint256",
          "name": "maxSupply",
          "type": "uint256"
        }
      ],
      "stateMutability": "nonpayable",
      "type": "constructor"
    },
    {
      "anonymous": false,
      "inputs": [
        {
          "indexed": true,
          "internalType": "address",
          "name": "owner",
          "type": "address"
        },
        {
          "indexed": true,
          "internalType": "address",
          "name": "approved",
          "type": "address"
        },
        {
          "indexed": true,
          "internalType": "uint256",
          "name": "tokenId",
          "type": "uint256"
        }
      ],
      "name": "Approval",
      "type": "event"
    },
    {
      "anonymous": false,
      "inputs": [
        {
          "indexed": true,
          "internalType": "address",
          "name": "owner",
          "type": "address"
        },
        {
          "indexed": true,
          "internalType": "address",
          "name": "operator",
          "type": "address"
        },
        {
          "indexed": false,
          "internalType": "bool",
          "name": "approved",
          "type": "bool"
        }
      ],
      "name": "ApprovalForAll",
      "type": "event"
    },
    {
      "anonymous": false,
      "inputs": [
        {
          "indexed": false,
          "internalType": "address",
          "name": "owner",
          "type": "address"
        },
        {
          "indexed": false,
          "internalType": "uint256",
          "name": "tokenId",
          "type": "uint256"
        }
      ],
      "name": "NewTokenMinted",
      "type": "event"
    },
    {
      "anonymous": false,
      "inputs": [
        {
          "indexed": true,
          "internalType": "address",
          "name": "from",
          "type": "address"
        },
        {
          "indexed": true,
          "internalType": "address",
          "name": "to",
          "type": "address"
        },
        {
          "indexed": true,
          "internalType": "uint256",
          "name": "tokenId",
          "type": "uint256"
        }
      ],
      "name": "Transfer",
      "type": "event"
    },
    {
      "inputs": [
        {
          "internalType": "address",
          "name": "to",
          "type": "address"
        },
        {
          "internalType": "uint256",
          "name": "tokenId",
          "type": "uint256"
        }
      ],
      "name": "approve",
      "outputs": [],
      "stateMutability": "nonpayable",
      "type": "function"
    },
    {
      "inputs": [
        {
          "internalType": "address",
          "name": "owner",
          "type": "address"
        }
      ],
      "name": "balanceOf",
      "outputs": [
        {
          "internalType": "uint256",
          "name": "",
          "type": "uint256"
        }
      ],
      "stateMutability": "view",
      "type": "function"
    },
    {
      "inputs": [
        {
          "internalType": "uint256",
          "name": "tokenId",
          "type": "uint256"
        }
      ],
      "name": "getApproved",
      "outputs": [
        {
          "internalType": "address",
          "name": "",
          "type": "address"
        }
      ],
      "stateMutability": "view",
      "type": "function"
    },
    {
      "inputs": [],
      "name": "getAvailableTokens",
      "outputs": [
        {
          "internalType": "uint256[]",
          "name": "",
          "type": "uint256[]"
        }
      ],
      "stateMutability": "view",
      "type": "function"
    },
    {
      "inputs": [],
      "name": "getNumberOfAvailableTokens",
      "outputs": [
        {
          "internalType": "uint256",
          "name": "",
          "type": "uint256"
        }
      ],
      "stateMutability": "view",
      "type": "function"
    },
    {
      "inputs": [
        {
          "internalType": "address",
          "name": "owner",
          "type": "address"
        }
      ],
      "name": "getOwnersTokens",
      "outputs": [
        {
          "internalType": "uint256[]",
          "name": "",
          "type": "uint256[]"
        }
      ],
      "stateMutability": "view",
      "type": "function"
    },
    {
      "inputs": [
        {
          "internalType": "address",
          "name": "owner",
          "type": "address"
        },
        {
          "internalType": "address",
          "name": "operator",
          "type": "address"
        }
      ],
      "name": "isApprovedForAll",
      "outputs": [
        {
          "internalType": "bool",
          "name": "",
          "type": "bool"
        }
      ],
      "stateMutability": "view",
      "type": "function"
    },
    {
      "inputs": [],
      "name": "mintNFT",
      "outputs": [],
      "stateMutability": "nonpayable",
      "type": "function"
    },
    {
      "inputs": [],
      "name": "name",
      "outputs": [
        {
          "internalType": "string",
          "name": "",
          "type": "string"
        }
      ],
      "stateMutability": "view",
      "type": "function"
    },
    {
      "inputs": [
        {
          "internalType": "uint256",
          "name": "tokenId",
          "type": "uint256"
        }
      ],
      "name": "ownerOf",
      "outputs": [
        {
          "internalType": "address",
          "name": "",
          "type": "address"
        }
      ],
      "stateMutability": "view",
      "type": "function"
    },
    {
      "inputs": [
        {
          "internalType": "address",
          "name": "from",
          "type": "address"
        },
        {
          "internalType": "address",
          "name": "to",
          "type": "address"
        },
        {
          "internalType": "uint256",
          "name": "tokenId",
          "type": "uint256"
        }
      ],
      "name": "safeTransferFrom",
      "outputs": [],
      "stateMutability": "nonpayable",
      "type": "function"
    },
    {
      "inputs": [
        {
          "internalType": "address",
          "name": "from",
          "type": "address"
        },
        {
          "internalType": "address",
          "name": "to",
          "type": "address"
        },
        {
          "internalType": "uint256",
          "name": "tokenId",
          "type": "uint256"
        },
        {
          "internalType": "bytes",
          "name": "_data",
          "type": "bytes"
        }
      ],
      "name": "safeTransferFrom",
      "outputs": [],
      "stateMutability": "nonpayable",
      "type": "function"
    },
    {
      "inputs": [
        {
          "internalType": "address",
          "name": "operator",
          "type": "address"
        },
        {
          "internalType": "bool",
          "name": "approved",
          "type": "bool"
        }
      ],
      "name": "setApprovalForAll",
      "outputs": [],
      "stateMutability": "nonpayable",
      "type": "function"
    },
    {
      "inputs": [
        {
          "internalType": "bytes4",
          "name": "interfaceId",
          "type": "bytes4"
        }
      ],
      "name": "supportsInterface",
      "outputs": [
        {
          "internalType": "bool",
          "name": "",
          "type": "bool"
        }
      ],
      "stateMutability": "view",
      "type": "function"
    },
    {
      "inputs": [],
      "name": "symbol",
      "outputs": [
        {
          "internalType": "string",
          "name": "",
          "type": "string"
        }
      ],
      "stateMutability": "view",
      "type": "function"
    },
    {
      "inputs": [
        {
          "internalType": "uint256",
          "name": "tokenId",
          "type": "uint256"
        }
      ],
      "name": "tokenURI",
      "outputs": [
        {
          "internalType": "string",
          "name": "",
          "type": "string"
        }
      ],
      "stateMutability": "view",
      "type": "function"
    },
    {
      "inputs": [
        {
          "internalType": "address",
          "name": "from",
          "type": "address"
        },
        {
          "internalType": "address",
          "name": "to",
          "type": "address"
        },
        {
          "internalType": "uint256",
          "name": "tokenId",
          "type": "uint256"
        }
      ],
      "name": "transferFrom",
      "outputs": [],
      "stateMutability": "nonpayable",
      "type": "function"
    }
  ],
  "bytecode": "0x60806040523480156200001157600080fd5b506040516200341638038062003416833981810160405281019062000037919062000234565b8282816000908051906020019062000051929190620000fb565b5080600190805190602001906200006a929190620000fb565b505050836006908051906020019062000085929190620000fb565b5080600781905550600060098190555060005b600754811015620000f0576008600182620000b491906200034a565b90806001815401808255809150506001900390600052602060002001600090919091909150558080620000e79062000453565b91505062000098565b505050505062000559565b8280546200010990620003e7565b90600052602060002090601f0160209004810192826200012d576000855562000179565b82601f106200014857805160ff191683800117855562000179565b8280016001018555821562000179579182015b82811115620001785782518255916020019190600101906200015b565b5b5090506200018891906200018c565b5090565b5b80821115620001a75760008160009055506001016200018d565b5090565b6000620001c2620001bc8462000314565b620002eb565b905082815260208101848484011115620001db57600080fd5b620001e8848285620003b1565b509392505050565b600082601f8301126200020257600080fd5b815162000214848260208601620001ab565b91505092915050565b6000815190506200022e816200053f565b92915050565b600080600080608085870312156200024b57600080fd5b600085015167ffffffffffffffff8111156200026657600080fd5b6200027487828801620001f0565b945050602085015167ffffffffffffffff8111156200029257600080fd5b620002a087828801620001f0565b935050604085015167ffffffffffffffff811115620002be57600080fd5b620002cc87828801620001f0565b9250506060620002df878288016200021d565b91505092959194509250565b6000620002f76200030a565b90506200030582826200041d565b919050565b6000604051905090565b600067ffffffffffffffff821115620003325762000331620004ff565b5b6200033d826200052e565b9050602081019050919050565b60006200035782620003a7565b91506200036483620003a7565b9250827fffffffffffffffffffffffffffffffffffffffffffffffffffffffffffffffff038211156200039c576200039b620004a1565b5b828201905092915050565b6000819050919050565b60005b83811015620003d1578082015181840152602081019050620003b4565b83811115620003e1576000848401525b50505050565b600060028204905060018216806200040057607f821691505b60208210811415620004175762000416620004d0565b5b50919050565b62000428826200052e565b810181811067ffffffffffffffff821117156200044a5762000449620004ff565b5b80604052505050565b60006200046082620003a7565b91507fffffffffffffffffffffffffffffffffffffffffffffffffffffffffffffffff821415620004965762000495620004a1565b5b600182019050919050565b7f4e487b7100000000000000000000000000000000000000000000000000000000600052601160045260246000fd5b7f4e487b7100000000000000000000000000000000000000000000000000000000600052602260045260246000fd5b7f4e487b7100000000000000000000000000000000000000000000000000000000600052604160045260246000fd5b6000601f19601f8301169050919050565b6200054a81620003a7565b81146200055657600080fd5b50565b612ead80620005696000396000f3fe608060405234801561001057600080fd5b506004361061010b5760003560e01c806370a08231116100a2578063c87b56dd11610071578063c87b56dd146102a2578063daa9855c146102d2578063db38f6c014610302578063e35568cb14610320578063e985e9c51461033e5761010b565b806370a082311461021c57806395d89b411461024c578063a22cb4651461026a578063b88d4fde146102865761010b565b806314f710fe116100de57806314f710fe146101aa57806323b872dd146101b457806342842e0e146101d05780636352211e146101ec5761010b565b806301ffc9a71461011057806306fdde0314610140578063081812fc1461015e578063095ea7b31461018e575b600080fd5b61012a60048036038101906101259190611d7b565b61036e565b6040516101379190612374565b60405180910390f35b610148610450565b604051610155919061238f565b60405180910390f35b61017860048036038101906101739190611dcd565b6104e2565b60405161018591906122c2565b60405180910390f35b6101a860048036038101906101a39190611d3f565b610567565b005b6101b261067f565b005b6101ce60048036038101906101c99190611c39565b610810565b005b6101ea60048036038101906101e59190611c39565b610870565b005b61020660048036038101906102019190611dcd565b610890565b60405161021391906122c2565b60405180910390f35b61023660048036038101906102319190611bd4565b610942565b6040516102439190612591565b60405180910390f35b6102546109fa565b604051610261919061238f565b60405180910390f35b610284600480360381019061027f9190611d03565b610a8c565b005b6102a0600480360381019061029b9190611c88565b610aa2565b005b6102bc60048036038101906102b79190611dcd565b610b04565b6040516102c9919061238f565b60405180910390f35b6102ec60048036038101906102e79190611bd4565b610bab565b6040516102f99190612352565b60405180910390f35b61030a610c42565b6040516103179190612591565b60405180910390f35b610328610c4f565b6040516103359190612352565b60405180910390f35b61035860048036038101906103539190611bfd565b610ca7565b6040516103659190612374565b60405180910390f35b60007f80ac58cd000000000000000000000000000000000000000000000000000000007bffffffffffffffffffffffffffffffffffffffffffffffffffffffff1916827bffffffffffffffffffffffffffffffffffffffffffffffffffffffff1916148061043957507f5b5e139f000000000000000000000000000000000000000000000000000000007bffffffffffffffffffffffffffffffffffffffffffffffffffffffff1916827bffffffffffffffffffffffffffffffffffffffffffffffffffffffff1916145b80610449575061044882610d3b565b5b9050919050565b60606000805461045f90612804565b80601f016020809104026020016040519081016040528092919081815260200182805461048b90612804565b80156104d85780601f106104ad576101008083540402835291602001916104d8565b820191906000526020600020905b8154815290600101906020018083116104bb57829003601f168201915b5050505050905090565b60006104ed82610da5565b61052c576040517f08c379a0000000000000000000000000000000000000000000000000000000008152600401610523906124f1565b60405180910390fd5b6004600083815260200190815260200160002060009054906101000a900473ffffffffffffffffffffffffffffffffffffffff169050919050565b600061057282610890565b90508073ffffffffffffffffffffffffffffffffffffffff168373ffffffffffffffffffffffffffffffffffffffff1614156105e3576040517f08c379a00000000000000000000000000000000000000000000000000000000081526004016105da90612531565b60405180910390fd5b8073ffffffffffffffffffffffffffffffffffffffff16610602610e11565b73ffffffffffffffffffffffffffffffffffffffff16148061063157506106308161062b610e11565b610ca7565b5b610670576040517f08c379a000000000000000000000000000000000000000000000000000000000815260040161066790612471565b60405180910390fd5b61067a8383610e19565b505050565b60075460095411156106c6576040517f08c379a00000000000000000000000000000000000000000000000000000000081526004016106bd90612571565b60405180910390fd5b60004433426040516020016106dd93929190612285565b604051602081830303815290604052905060006106f982610ed2565b9050600060088281548110610737577f4e487b7100000000000000000000000000000000000000000000000000000000600052603260045260246000fd5b9060005260206000200154905061074e3382610f1a565b61075782610f38565b60016009546107669190612693565b600981905550600a60003373ffffffffffffffffffffffffffffffffffffffff1673ffffffffffffffffffffffffffffffffffffffff1681526020019081526020016000208190806001815401808255809150506001900390600052602060002001600090919091909150557f5dd00ffcb6618cfa61061cff0e31d2e5871199cfca7a136a4ada2dafa91ab9413382604051610803929190612329565b60405180910390a1505050565b61082161081b610e11565b82611027565b610860576040517f08c379a000000000000000000000000000000000000000000000000000000000815260040161085790612551565b60405180910390fd5b61086b838383611105565b505050565b61088b83838360405180602001604052806000815250610aa2565b505050565b6000806002600084815260200190815260200160002060009054906101000a900473ffffffffffffffffffffffffffffffffffffffff169050600073ffffffffffffffffffffffffffffffffffffffff168173ffffffffffffffffffffffffffffffffffffffff161415610939576040517f08c379a0000000000000000000000000000000000000000000000000000000008152600401610930906124b1565b60405180910390fd5b80915050919050565b60008073ffffffffffffffffffffffffffffffffffffffff168273ffffffffffffffffffffffffffffffffffffffff1614156109b3576040517f08c379a00000000000000000000000000000000000000000000000000000000081526004016109aa90612491565b60405180910390fd5b600360008373ffffffffffffffffffffffffffffffffffffffff1673ffffffffffffffffffffffffffffffffffffffff168152602001908152602001600020549050919050565b606060018054610a0990612804565b80601f0160208091040260200160405190810160405280929190818152602001828054610a3590612804565b8015610a825780601f10610a5757610100808354040283529160200191610a82565b820191906000526020600020905b815481529060010190602001808311610a6557829003601f168201915b5050505050905090565b610a9e610a97610e11565b838361136c565b5050565b610ab3610aad610e11565b83611027565b610af2576040517f08c379a0000000000000000000000000000000000000000000000000000000008152600401610ae990612551565b60405180910390fd5b610afe848484846114d9565b50505050565b6060610b0f82610da5565b610b4e576040517f08c379a0000000000000000000000000000000000000000000000000000000008152600401610b4590612511565b60405180910390fd5b6000610b58611535565b90506000815111610b785760405180602001604052806000815250610ba3565b80610b828461155d565b604051602001610b9392919061223f565b6040516020818303038152906040525b915050919050565b6060600a60008373ffffffffffffffffffffffffffffffffffffffff1673ffffffffffffffffffffffffffffffffffffffff168152602001908152602001600020805480602002602001604051908101604052809291908181526020018280548015610c3657602002820191906000526020600020905b815481526020019060010190808311610c22575b50505050509050919050565b6000600880549050905090565b60606008805480602002602001604051908101604052809291908181526020018280548015610c9d57602002820191906000526020600020905b815481526020019060010190808311610c89575b5050505050905090565b6000600560008473ffffffffffffffffffffffffffffffffffffffff1673ffffffffffffffffffffffffffffffffffffffff16815260200190815260200160002060008373ffffffffffffffffffffffffffffffffffffffff1673ffffffffffffffffffffffffffffffffffffffff16815260200190815260200160002060009054906101000a900460ff16905092915050565b60007f01ffc9a7000000000000000000000000000000000000000000000000000000007bffffffffffffffffffffffffffffffffffffffffffffffffffffffff1916827bffffffffffffffffffffffffffffffffffffffffffffffffffffffff1916149050919050565b60008073ffffffffffffffffffffffffffffffffffffffff166002600084815260200190815260200160002060009054906101000a900473ffffffffffffffffffffffffffffffffffffffff1673ffffffffffffffffffffffffffffffffffffffff1614159050919050565b600033905090565b816004600083815260200190815260200160002060006101000a81548173ffffffffffffffffffffffffffffffffffffffff021916908373ffffffffffffffffffffffffffffffffffffffff160217905550808273ffffffffffffffffffffffffffffffffffffffff16610e8c83610890565b73ffffffffffffffffffffffffffffffffffffffff167f8c5be1e5ebec7d5bd14f71427d1e84f3dd0314c0f7b2291e5b200ac8c7c3b92560405160405180910390a45050565b60008082604051602001610ee69190612228565b6040516020818303038152906040528051906020012060001c905060088054905081610f1291906128de565b915050919050565b610f3482826040518060200160405280600081525061170a565b5050565b60086001600880549050610f4c919061271a565b81548110610f83577f4e487b7100000000000000000000000000000000000000000000000000000000600052603260045260246000fd5b906000526020600020015460088281548110610fc8577f4e487b7100000000000000000000000000000000000000000000000000000000600052603260045260246000fd5b9060005260206000200181905550600880548061100e577f4e487b7100000000000000000000000000000000000000000000000000000000600052603160045260246000fd5b6001900381819060005260206000200160009055905550565b600061103282610da5565b611071576040517f08c379a000000000000000000000000000000000000000000000000000000000815260040161106890612451565b60405180910390fd5b600061107c83610890565b90508073ffffffffffffffffffffffffffffffffffffffff168473ffffffffffffffffffffffffffffffffffffffff1614806110eb57508373ffffffffffffffffffffffffffffffffffffffff166110d3846104e2565b73ffffffffffffffffffffffffffffffffffffffff16145b806110fc57506110fb8185610ca7565b5b91505092915050565b8273ffffffffffffffffffffffffffffffffffffffff1661112582610890565b73ffffffffffffffffffffffffffffffffffffffff161461117b576040517f08c379a0000000000000000000000000000000000000000000000000000000008152600401611172906123d1565b60405180910390fd5b600073ffffffffffffffffffffffffffffffffffffffff168273ffffffffffffffffffffffffffffffffffffffff1614156111eb576040517f08c379a00000000000000000000000000000000000000000000000000000000081526004016111e290612411565b60405180910390fd5b6111f6838383611765565b611201600082610e19565b6001600360008573ffffffffffffffffffffffffffffffffffffffff1673ffffffffffffffffffffffffffffffffffffffff1681526020019081526020016000206000828254611251919061271a565b925050819055506001600360008473ffffffffffffffffffffffffffffffffffffffff1673ffffffffffffffffffffffffffffffffffffffff16815260200190815260200160002060008282546112a89190612693565b92505081905550816002600083815260200190815260200160002060006101000a81548173ffffffffffffffffffffffffffffffffffffffff021916908373ffffffffffffffffffffffffffffffffffffffff160217905550808273ffffffffffffffffffffffffffffffffffffffff168473ffffffffffffffffffffffffffffffffffffffff167fddf252ad1be2c89b69c2b068fc378daa952ba7f163c4a11628f55a4df523b3ef60405160405180910390a461136783838361176a565b505050565b8173ffffffffffffffffffffffffffffffffffffffff168373ffffffffffffffffffffffffffffffffffffffff1614156113db576040517f08c379a00000000000000000000000000000000000000000000000000000000081526004016113d290612431565b60405180910390fd5b80600560008573ffffffffffffffffffffffffffffffffffffffff1673ffffffffffffffffffffffffffffffffffffffff16815260200190815260200160002060008473ffffffffffffffffffffffffffffffffffffffff1673ffffffffffffffffffffffffffffffffffffffff16815260200190815260200160002060006101000a81548160ff0219169083151502179055508173ffffffffffffffffffffffffffffffffffffffff168373ffffffffffffffffffffffffffffffffffffffff167f17307eab39ab6107e8899845ad3d59bd9653f200f220920489ca2b5937696c31836040516114cc9190612374565b60405180910390a3505050565b6114e4848484611105565b6114f08484848461176f565b61152f576040517f08c379a0000000000000000000000000000000000000000000000000000000008152600401611526906123b1565b60405180910390fd5b50505050565b606060066040516020016115499190612263565b604051602081830303815290604052905090565b606060008214156115a5576040518060400160405280600181526020017f30000000000000000000000000000000000000000000000000000000000000008152509050611705565b600082905060005b600082146115d75780806115c090612867565b915050600a826115d091906126e9565b91506115ad565b60008167ffffffffffffffff811115611619577f4e487b7100000000000000000000000000000000000000000000000000000000600052604160045260246000fd5b6040519080825280601f01601f19166020018201604052801561164b5781602001600182028036833780820191505090505b5090505b600085146116fe57600182611664919061271a565b9150600a8561167391906128de565b603061167f9190612693565b60f81b8183815181106116bb577f4e487b7100000000000000000000000000000000000000000000000000000000600052603260045260246000fd5b60200101907effffffffffffffffffffffffffffffffffffffffffffffffffffffffffffff1916908160001a905350600a856116f791906126e9565b945061164f565b8093505050505b919050565b6117148383611906565b611721600084848461176f565b611760576040517f08c379a0000000000000000000000000000000000000000000000000000000008152600401611757906123b1565b60405180910390fd5b505050565b505050565b505050565b60006117908473ffffffffffffffffffffffffffffffffffffffff16611ae0565b156118f9578373ffffffffffffffffffffffffffffffffffffffff1663150b7a026117b9610e11565b8786866040518563ffffffff1660e01b81526004016117db94939291906122dd565b602060405180830381600087803b1580156117f557600080fd5b505af192505050801561182657506040513d601f19601f820116820180604052508101906118239190611da4565b60015b6118a9573d8060008114611856576040519150601f19603f3d011682016040523d82523d6000602084013e61185b565b606091505b506000815114156118a1576040517f08c379a0000000000000000000000000000000000000000000000000000000008152600401611898906123b1565b60405180910390fd5b805181602001fd5b63150b7a0260e01b7bffffffffffffffffffffffffffffffffffffffffffffffffffffffff1916817bffffffffffffffffffffffffffffffffffffffffffffffffffffffff1916149150506118fe565b600190505b949350505050565b600073ffffffffffffffffffffffffffffffffffffffff168273ffffffffffffffffffffffffffffffffffffffff161415611976576040517f08c379a000000000000000000000000000000000000000000000000000000000815260040161196d906124d1565b60405180910390fd5b61197f81610da5565b156119bf576040517f08c379a00000000000000000000000000000000000000000000000000000000081526004016119b6906123f1565b60405180910390fd5b6119cb60008383611765565b6001600360008473ffffffffffffffffffffffffffffffffffffffff1673ffffffffffffffffffffffffffffffffffffffff1681526020019081526020016000206000828254611a1b9190612693565b92505081905550816002600083815260200190815260200160002060006101000a81548173ffffffffffffffffffffffffffffffffffffffff021916908373ffffffffffffffffffffffffffffffffffffffff160217905550808273ffffffffffffffffffffffffffffffffffffffff16600073ffffffffffffffffffffffffffffffffffffffff167fddf252ad1be2c89b69c2b068fc378daa952ba7f163c4a11628f55a4df523b3ef60405160405180910390a4611adc6000838361176a565b5050565b6000808273ffffffffffffffffffffffffffffffffffffffff163b119050919050565b6000611b16611b11846125d1565b6125ac565b905082815260208101848484011115611b2e57600080fd5b611b398482856127c2565b509392505050565b600081359050611b5081612e1b565b92915050565b600081359050611b6581612e32565b92915050565b600081359050611b7a81612e49565b92915050565b600081519050611b8f81612e49565b92915050565b600082601f830112611ba657600080fd5b8135611bb6848260208601611b03565b91505092915050565b600081359050611bce81612e60565b92915050565b600060208284031215611be657600080fd5b6000611bf484828501611b41565b91505092915050565b60008060408385031215611c1057600080fd5b6000611c1e85828601611b41565b9250506020611c2f85828601611b41565b9150509250929050565b600080600060608486031215611c4e57600080fd5b6000611c5c86828701611b41565b9350506020611c6d86828701611b41565b9250506040611c7e86828701611bbf565b9150509250925092565b60008060008060808587031215611c9e57600080fd5b6000611cac87828801611b41565b9450506020611cbd87828801611b41565b9350506040611cce87828801611bbf565b925050606085013567ffffffffffffffff811115611ceb57600080fd5b611cf787828801611b95565b91505092959194509250565b60008060408385031215611d1657600080fd5b6000611d2485828601611b41565b9250506020611d3585828601611b56565b9150509250929050565b60008060408385031215611d5257600080fd5b6000611d6085828601611b41565b9250506020611d7185828601611bbf565b9150509250929050565b600060208284031215611d8d57600080fd5b6000611d9b84828501611b6b565b91505092915050565b600060208284031215611db657600080fd5b6000611dc484828501611b80565b91505092915050565b600060208284031215611ddf57600080fd5b6000611ded84828501611bbf565b91505092915050565b6000611e0283836121f3565b60208301905092915050565b611e178161274e565b82525050565b611e2e611e298261274e565b6128b0565b82525050565b6000611e3f82612627565b611e498185612655565b9350611e5483612602565b8060005b83811015611e85578151611e6c8882611df6565b9750611e7783612648565b925050600181019050611e58565b5085935050505092915050565b611e9b81612760565b82525050565b6000611eac82612632565b611eb68185612666565b9350611ec68185602086016127d1565b611ecf816129cb565b840191505092915050565b6000611ee58261263d565b611eef8185612677565b9350611eff8185602086016127d1565b611f08816129cb565b840191505092915050565b6000611f1e8261263d565b611f288185612688565b9350611f388185602086016127d1565b80840191505092915050565b60008154611f5181612804565b611f5b8186612688565b94506001821660008114611f765760018114611f8757611fba565b60ff19831686528186019350611fba565b611f9085612612565b60005b83811015611fb257815481890152600182019150602081019050611f93565b838801955050505b50505092915050565b6000611fd0603283612677565b9150611fdb826129e9565b604082019050919050565b6000611ff3602583612677565b9150611ffe82612a38565b604082019050919050565b6000612016601c83612677565b915061202182612a87565b602082019050919050565b6000612039602483612677565b915061204482612ab0565b604082019050919050565b600061205c601983612677565b915061206782612aff565b602082019050919050565b600061207f602c83612677565b915061208a82612b28565b604082019050919050565b60006120a2603883612677565b91506120ad82612b77565b604082019050919050565b60006120c5602a83612677565b91506120d082612bc6565b604082019050919050565b60006120e8602983612677565b91506120f382612c15565b604082019050919050565b600061210b602083612677565b915061211682612c64565b602082019050919050565b600061212e602c83612677565b915061213982612c8d565b604082019050919050565b6000612151602f83612677565b915061215c82612cdc565b604082019050919050565b6000612174602183612677565b915061217f82612d2b565b604082019050919050565b6000612197603183612677565b91506121a282612d7a565b604082019050919050565b60006121ba601783612677565b91506121c582612dc9565b602082019050919050565b60006121dd600183612688565b91506121e882612df2565b600182019050919050565b6121fc816127b8565b82525050565b61220b816127b8565b82525050565b61222261221d826127b8565b6128d4565b82525050565b60006122348284611f13565b915081905092915050565b600061224b8285611f13565b91506122578284611f13565b91508190509392505050565b600061226f8284611f44565b915061227a826121d0565b915081905092915050565b60006122918286612211565b6020820191506122a18285611e1d565b6014820191506122b18284612211565b602082019150819050949350505050565b60006020820190506122d76000830184611e0e565b92915050565b60006080820190506122f26000830187611e0e565b6122ff6020830186611e0e565b61230c6040830185612202565b818103606083015261231e8184611ea1565b905095945050505050565b600060408201905061233e6000830185611e0e565b61234b6020830184612202565b9392505050565b6000602082019050818103600083015261236c8184611e34565b905092915050565b60006020820190506123896000830184611e92565b92915050565b600060208201905081810360008301526123a98184611eda565b905092915050565b600060208201905081810360008301526123ca81611fc3565b9050919050565b600060208201905081810360008301526123ea81611fe6565b9050919050565b6000602082019050818103600083015261240a81612009565b9050919050565b6000602082019050818103600083015261242a8161202c565b9050919050565b6000602082019050818103600083015261244a8161204f565b9050919050565b6000602082019050818103600083015261246a81612072565b9050919050565b6000602082019050818103600083015261248a81612095565b9050919050565b600060208201905081810360008301526124aa816120b8565b9050919050565b600060208201905081810360008301526124ca816120db565b9050919050565b600060208201905081810360008301526124ea816120fe565b9050919050565b6000602082019050818103600083015261250a81612121565b9050919050565b6000602082019050818103600083015261252a81612144565b9050919050565b6000602082019050818103600083015261254a81612167565b9050919050565b6000602082019050818103600083015261256a8161218a565b9050919050565b6000602082019050818103600083015261258a816121ad565b9050919050565b60006020820190506125a66000830184612202565b92915050565b60006125b66125c7565b90506125c28282612836565b919050565b6000604051905090565b600067ffffffffffffffff8211156125ec576125eb61299c565b5b6125f5826129cb565b9050602081019050919050565b6000819050602082019050919050565b60008190508160005260206000209050919050565b600081519050919050565b600081519050919050565b600081519050919050565b6000602082019050919050565b600082825260208201905092915050565b600082825260208201905092915050565b600082825260208201905092915050565b600081905092915050565b600061269e826127b8565b91506126a9836127b8565b9250827fffffffffffffffffffffffffffffffffffffffffffffffffffffffffffffffff038211156126de576126dd61290f565b5b828201905092915050565b60006126f4826127b8565b91506126ff836127b8565b92508261270f5761270e61293e565b5b828204905092915050565b6000612725826127b8565b9150612730836127b8565b9250828210156127435761274261290f565b5b828203905092915050565b600061275982612798565b9050919050565b60008115159050919050565b60007fffffffff0000000000000000000000000000000000000000000000000000000082169050919050565b600073ffffffffffffffffffffffffffffffffffffffff82169050919050565b6000819050919050565b82818337600083830152505050565b60005b838110156127ef5780820151818401526020810190506127d4565b838111156127fe576000848401525b50505050565b6000600282049050600182168061281c57607f821691505b602082108114156128305761282f61296d565b5b50919050565b61283f826129cb565b810181811067ffffffffffffffff8211171561285e5761285d61299c565b5b80604052505050565b6000612872826127b8565b91507fffffffffffffffffffffffffffffffffffffffffffffffffffffffffffffffff8214156128a5576128a461290f565b5b600182019050919050565b60006128bb826128c2565b9050919050565b60006128cd826129dc565b9050919050565b6000819050919050565b60006128e9826127b8565b91506128f4836127b8565b9250826129045761290361293e565b5b828206905092915050565b7f4e487b7100000000000000000000000000000000000000000000000000000000600052601160045260246000fd5b7f4e487b7100000000000000000000000000000000000000000000000000000000600052601260045260246000fd5b7f4e487b7100000000000000000000000000000000000000000000000000000000600052602260045260246000fd5b7f4e487b7100000000000000000000000000000000000000000000000000000000600052604160045260246000fd5b6000601f19601f8301169050919050565b60008160601b9050919050565b7f4552433732313a207472616e7366657220746f206e6f6e20455243373231526560008201527f63656976657220696d706c656d656e7465720000000000000000000000000000602082015250565b7f4552433732313a207472616e736665722066726f6d20696e636f72726563742060008201527f6f776e6572000000000000000000000000000000000000000000000000000000602082015250565b7f4552433732313a20746f6b656e20616c7265616479206d696e74656400000000600082015250565b7f4552433732313a207472616e7366657220746f20746865207a65726f2061646460008201527f7265737300000000000000000000000000000000000000000000000000000000602082015250565b7f4552433732313a20617070726f766520746f2063616c6c657200000000000000600082015250565b7f4552433732313a206f70657261746f7220717565727920666f72206e6f6e657860008201527f697374656e7420746f6b656e0000000000000000000000000000000000000000602082015250565b7f4552433732313a20617070726f76652063616c6c6572206973206e6f74206f7760008201527f6e6572206e6f7220617070726f76656420666f7220616c6c0000000000000000602082015250565b7f4552433732313a2062616c616e636520717565727920666f7220746865207a6560008201527f726f206164647265737300000000000000000000000000000000000000000000602082015250565b7f4552433732313a206f776e657220717565727920666f72206e6f6e657869737460008201527f656e7420746f6b656e0000000000000000000000000000000000000000000000602082015250565b7f4552433732313a206d696e7420746f20746865207a65726f2061646472657373600082015250565b7f4552433732313a20617070726f76656420717565727920666f72206e6f6e657860008201527f697374656e7420746f6b656e0000000000000000000000000000000000000000602082015250565b7f4552433732314d657461646174613a2055524920717565727920666f72206e6f60008201527f6e6578697374656e7420746f6b656e0000000000000000000000000000000000602082015250565b7f4552433732313a20617070726f76616c20746f2063757272656e74206f776e6560008201527f7200000000000000000000000000000000000000000000000000000000000000602082015250565b7f4552433732313a207472616e736665722063616c6c6572206973206e6f74206f60008201527f776e6572206e6f7220617070726f766564000000000000000000000000000000602082015250565b7f576f756c6420657863656564206d617820737570706c79000000000000000000600082015250565b7f2f00000000000000000000000000000000000000000000000000000000000000600082015250565b612e248161274e565b8114612e2f57600080fd5b50565b612e3b81612760565b8114612e4657600080fd5b50565b612e528161276c565b8114612e5d57600080fd5b50565b612e69816127b8565b8114612e7457600080fd5b5056fea264697066735822122021540891d9ad27f8b02b2223f53f6e6dc85b6f79c90ef71a55b6eeb163bec2aa64736f6c63430008010033",
  "linkReferences": {},
  "deployedLinkReferences": {}
}